:020000040800F2
:1000000058A00020DFAE00088DAE00088FAE0008BB
:1000100091AE000893AE000895AE00080000000005
:1000200000000000000000000000000005AF000814
:1000300097AE000800000000FF850008B93F0008E7
:1000400015AF000819AF00081DAF00089BAE0008EF
:1000500025AF000829AF00082DAF000831AF000818
:1000600035AF000839AF00083DAF000841AF0008C8
:1000700045AF000849AF00084DAF000851AF000878
:1000800055AF000859AF00085DAF000861AF000828
:1000900065AF000869AF00086DAF00083D34000887
:1000A00075AF000879AF00087DAF000881AF000888
:1000B00085AF000889AF00088DAF000891AF000838
:1000C00095AF000899AF00089DAF0008A1AF0008E8
:1000D000A5AF000801AE00082D6600086D7200088B
:1000E000B5AF0008B9AF0008BDAF000800000000C0
:1000F0000000000000000000000000000000000000
:100100000000000000000000C1AF0008C5AF0008FB
:10011000478A0008AB8A0008D1AF0008D5AF0008B5
:10012000D9AF0008DDAF0008E1AF0008E5AF000877
:10013000E9AF000805AD000899AE0008F5AF00086A
:10014000F9AF0008FDAF000801B0000805B00008D5
:10015000DFF8A406016899B94FF4803181604FF44B
:10016000805141604FF0FF31C16001610421416164
:10017000DFF888160422C1F8B821DFF88416016080
:100180000120704701F1080313F0070308BF0023A3
:1001900007D001F1080303F00703C3F1080303F0DC
:1001A00007035918D21A8161C26042F001034B6003
:1001B000511828224A60DFF840160969C16170476A
:1001C0002DE9F04101F1080414F0070408BF0024F0
:1001D00007D001F1080404F00704C4F1080404F096
:1001E0000704611802F1080414F0070408BF002492
:1001F00007D002F1080404F00704C4F1080404F075
:100200000704A5185A186C1AE41A43F003034B604C
:10021000AA4201D301F010B96E68F307FAD5102C89
:10022000F8D383699D4207D1C368E318C360826134
:1002300043F00100506042E143699D4208D1836868
:10024000E3188360426143F0010050609B5036E147
:1002500006F00303012B40F0A080F308DB004FEA17
:10026000D30EBEF1200F26D2AF68D5F80CC065457D
:10027000D0D0BD42CED0674506D10668012707FA27
:100280000EF7BE43066086E04FEA4E0600EB860698
:1002900006F1280E774503D0D0F810E07745B9D3A2
:1002A0002836B44502D00669B445B3D3C7F80CC0AC
:1002B000CCF808706FE0AF69EE68AE420AD0D5F8AE
:1002C00008C0D0F810E0F445A4D3CCF80C60C6F810
:1002D00008C024E005F2140CDCF8006046B905F112
:1002E000100CDCF80060D6B102E0F446DCF80060E7
:1002F00006F2140EDEF80080B8F1000FF5D106F119
:10030000100EDEF80080B8F1000FEED1D0F810E04A
:10031000F445FFF47FAF4FF0000ECCF800E0002F63
:1003200039D0D5F81CC000EB8C0C0CF2301CDCF87A
:1003300000E075450BD1CCF800609EB946680127F6
:10034000D5F81CC007FA0CF7BE43466023E0D0F88E
:1003500010C06745FFF45EAFD7F810C0AC450CBFC6
:100360003E617E61BEB1D0F810C06645FFF452AF69
:10037000B7612F6937B1D0F810C06745FFF44AAFB5
:100380003761BE616F6937B1D0F810C06745FFF4BF
:1003900041AF7761BE615D191C196B685B085B003A
:1003A0006B6044F001035360A450E308202B1BD280
:1003B0005D0000EB850505F228052E46102CFFF4A4
:1003C00029AF012707FA03F304681C4204BF234343
:1003D000036004D0AE6800698642FFF41BAFAA60D8
:1003E000F2609660D5606AE0230A08BF002523D03A
:1003F000B3F5803F28BF1F251ED2A3F580752D0CB5
:1004000005F00805AB40A3F58056360C06F004064F
:10041000B340A3F580473F0C07F00207C5F10E0576
:10042000AD1BED1BBB4005EBD333DD1D24FA05F5F9
:1004300005F0010505EB430500EB850303F23013DE
:10044000D561002656611661012707FA05F647684F
:10045000374207D146EA070444601A609361D260CC
:1004600092602CE01B681F2D0EBF00256D08C5F1A2
:10047000190504FA05F500E033465E68F608F60053
:10048000A6420ED0EE0F03EB860606F110076D00B4
:100490003E68002EF0D100698742FFF4BBAE3A609F
:1004A000DCE79C6800698342FFF4B4AE8442FFF449
:1004B000B1AEE2609A609460D3600020906101F177
:1004C0000800BDE8F0812DE9FE4F0446A56904F25D
:1004D000BC102E4601688E4203D3426851188E42EA
:1004E00002D380680028F5D14168006801EB00085C
:1004F000A8F12F0000F1080111F0070108BF002149
:1005000007D000F1080101F00701C1F1080101F075
:10051000070101EB000A05F11000824538BFAA4629
:100520000AF1080B0AF1180900270198A0F1280226
:1005300000992046FFF726FE1BF0070022D11B2062
:10054000CAF8040004F2BC10B0E80E10ABE80E10BC
:10055000ABF1100B0098C4F8BC010198C4F8C001BD
:100560000298C4F8C801C4F8C4B100E0814609F19A
:1005700004000721C9F804107F1C011D4145F5D373
:10058000022F01DA00F058BFAA4500F09380AAEBD1
:10059000060041194A68520852004A6040F00101C1
:1005A00069604051C108202919D24A0004EB820237
:1005B00002F2280213461028E4D3012606FA01F0BD
:1005C0002168014206D1084320609560DD60AB6080
:1005D000EA606FE0936820698342F6D2D2E7010AAD
:1005E00008BF002223D0B1F5803F28BF1F221ED2B2
:1005F000A1F58072120C02F008029140A1F580531F
:100600001B0C03F004039940A1F58046360C06F05C
:100610000206C2F10E02D21A921BB14002EBD13196
:10062000CA1D20FA02F202F0010202EB410204EBC1
:10063000820101F23011EA6100236B612B61012616
:1006400006FA02F366681E4207D143EA06006060BC
:100650000D60A961ED60AD602CE009681F2A0EBF36
:1006600000225208C2F1190200FA02F200E0194613
:100670004B68DB08DB0083420ED0D30F01EB830312
:1006800003F1100652003368002BF0D12069864236
:10069000FFF478AF3560DCE7886822699142FFF4A7
:1006A00071AF9042FFF46EAFC5608D60A860E960E5
:1006B0000020A86100F052BBF8B504460D464E4E2E
:1006C000306808B9FFF744FD00F0CCFE010000F0EF
:1006D00091800A6811F1010F00F08C80D4F8B0010C
:1006E0001018C4F8B001D4F8B401D4F8B03198426D
:1006F00038BF1846C4F8B401A06968BB206908B1C6
:10070000814200D22161C4F8BC11C4F8C02100208C
:10071000C4F8C801306860624FF0FF3020622046A4
:10072000202300F22806F660B66008305B1EF8D180
:100730003248844204D1283A2046FFF723FD48E09E
:1007400054F8040CC00814EBC00008385118091AFA
:10075000A1F128020146EFE704F2BC10034600E0D5
:100760009B68BBB15E681F68F619B142F8D11E7B69
:1007700036070FD43E46A769B7420BD35F68D4F85B
:1007800018C0BE19B44505D2D0195860E0681218D7
:10079000A169D1E72369994238BF21610346501806
:1007A00000E09B688BB11E688642FAD1187B000777
:1007B0000BD4304619605E6892195A602B46024687
:1007C000204601B0BDE8F040FAE400232046FFF7E0
:1007D0007AFEE06885420DD2401BE060A1696A188C
:1007E000A26140F00100506045F00300486001F153
:1007F0000800F2BD0020F2BDBC8D00209C820020CC
:100800006859883C2DE9F04100224B420C0A08BF90
:10081000002423D0B4F5803F28BF1F241ED2A4F5A6
:1008200080752D0C05F00805AC40A4F58056360CFB
:1008300006F00406B440A4F580473F0C07F0020719
:10084000C5F10E05AD1BED1BBC4005EBD434E51D19
:1008500021FA05F505F0010505EB440400EB8405DC
:10086000D5F8305155B31F2C0EBF00266608C6F1CF
:10087000190601FA06F6002700E07600D5F804C054
:100880004FEADC0C4FEACC0CACEB010C9C4502D2DD
:100890002A4663467BB1D5F814C04FEAD67E05EBF5
:1008A0008E052D69BCF1000F02D0AC4518BF67461C
:1008B000002DE2D13D4675BB002A3DD1012505FA48
:1008C00004F4640065422C4345682C4000F05181DB
:1008D00065422C40651E2C0B04F0100425FA04F62A
:1008E000750905F00805EE40B70807F00407FE405B
:1008F0004FEA560C0CF0020C26FA0CF6C6F3400E2A
:100900002C193C196444744426FA0EF52C1900EB9A
:100910008404D4F830517DB100E025466C68E408C9
:10092000E400641A9C423CBF23462A462C69002CF2
:10093000F3D16D69002DF1D1002A00F01A8184688D
:10094000641AA34280F0158116460469A64206D3B4
:100950008C18CD185768FF08FF00AF4201D000F097
:100960006BBDA642FBD29769D66896420AD0D2F8F0
:1009700008C0D0F810E0F445F1D3CCF80C60C6F80C
:1009800008C023E002F2140CDCF8006046B902F162
:10099000100CDCF80060CEB102E0F446DCF8006038
:1009A00006F2140EDEF80080B8F1000FF5D106F162
:1009B000100EDEF80080B8F1000FEED1D0F810E094
:1009C000F445CCD34FF0000ECCF800E0002F35D02A
:1009D000D2F81CC000EB8C0C0CF2301CDCF800E0F0
:1009E00072450BD1CCF8006096B946680127D2F861
:1009F0001CC007FA0CF7BE4346601FE0D0F810C0D9
:100A00006745ACD3D7F810C094450CBF3E617E61FA
:100A1000A6B1D0F810C06645A1D3B76117692FB150
:100A2000D0F810C067459AD33761BE6157692FB1BE
:100A3000D0F810C0674592D37761BE61102B08D201
:100A400045F003005060A818416841F00101416081
:100A50008CE041F00301516043F0010161601B51E2
:100A6000D908202918D24B0000EB830303F2280396
:100A70001E46012505FA01F105680D4204BF294310
:100A8000016004D09E6800698642FFF468AF9C60F4
:100A9000F460A660E36069E0190A08BF002623D06D
:100AA000B1F5803F28BF1F261ED2A1F580752D0C01
:100AB00005F00805A940A1F58056360C06F004069D
:100AC000B140A1F580473F0C07F00207C5F10E05C4
:100AD000AD1BED1BB94005EBD131CD1D23FA05F55A
:100AE00005F0010505EB410600EB860101F230112E
:100AF000E6610025656125610125B54047682F4203
:100B000007D13B462B4343600C60A161E460A460C5
:100B10002CE009681F2E0EBF00257508C5F11905C8
:100B200003FA05F500E031464E68F608F6009E42ED
:100B30000ED0EE0F01EB860606F110076D003E6841
:100B4000002EF0D100698742FFF409AF3C60DCE77A
:100B50008B680569A942FFF402AFAB42FFF4FFAE18
:100B6000DC608C60A360E1600020A06102F10800FD
:100B700000E00020BDE8F0812DE9F0414268134615
:100B80005B421A40531E1A0B02F01002D3405C095C
:100B900004F00804E3409D0805F00405EB405E08FE
:100BA00006F00206F340C3F34007A218AA18B218D1
:100BB000BA18FB409A1800EB8202D2F83041234663
:100BC0006268D208D200521A07E06568ED08ED00AD
:100BD0006D1A95423CBF2A4623462569002D14BF55
:100BE0002C466469002CF0D11E460469A64206D347
:100BF000CC188D185F68FF08FF00AF4201D000F0ED
:100C00001BBCA642FBD29F69DE689E420AD0D3F885
:100C100008C0D0F810E0F445F1D3CCF80C60C6F869
:100C200008C023E003F2140CDCF8006046B903F1BD
:100C3000100CDCF80060CEB102E0F446DCF8006095
:100C400006F2140EDEF80080B8F1000FF5D106F1BF
:100C5000100EDEF80080B8F1000FEED1D0F810E0F1
:100C6000F445CCD34FF0000ECCF800E0002F35D087
:100C7000D3F81CC000EB8C0C0CF2301CDCF800E04C
:100C800073450BD1CCF8006096B946680127D3F8BC
:100C90001CC007FA0CF7BE4346601FE0D0F810C036
:100CA0006745ACD3D7F810C09C450CBF3E617E6150
:100CB000A6B1D0F810C06645A1D3B7611F692FB1A6
:100CC000D0F810C067459AD33761BE615F692FB114
:100CD000D0F810C0674592D37761BE61102A08D260
:100CE00045F003005860E818416841F00101416097
:100CF00030E041F00301596042F00101616012519E
:100D000087682FB341694FEAD70CBCF1200FBFF4BD
:100D100076AF4FEA4C0500EB850505F228052E4617
:100D2000102FFFF46CAF012707FA0CF7D0F800C0C2
:100D30001CEA070F04BF47EA0C07076004D0AE683F
:100D40000769BE42FFF45BAFA960F1608E60CD60C1
:100D50008260446103F10800BDE8F08103B0BDE8A2
:100D6000F08FF8B50446012000F0A8FBF52C80F0C8
:100D7000D3800B2C31BF102404F10B00C408E40015
:100D8000E308DFF8B006016821FA03F515F0030265
:100D900033D0EA4302F00102D3185A0000EB82027A
:100DA00002F22805AA68DC005668F608F600A6429A
:100DB00001D000F041BB9668AA42FAD0B242F8D006
:100DC0005768FF08FF00A742F3D1B54205D10125BE
:100DD00005FA03F39943016004E000698642E8D311
:100DE000AE60F56044F003005060A018416841F027
:100DF0000101416002F10805D6E08268A24280F05C
:100E00009E80002D00F07F80012202FA03F676001A
:100E100005FA03F3754235432B405D422B405D1EBE
:100E20002B0B03F0100325FA03F6750905F00805EE
:100E3000EE40B70807F00407FE404FEA560C0CF0EE
:100E4000020C26FA0CF6C6F3400EEB18FB186344AE
:100E5000734426FA0EF5ED186B0000EB830303F2E2
:100E60002806B368EF00D3F804C04FEADC0C4FEA61
:100E7000CC0CBC459DD1D3F808C0B34299D0634592
:100E800097D0664502BF02FA05F5A943016006D076
:100E900001698C458DD3C6F808C0CCF80C60391BAD
:100EA00044F003055D60E41841F0010565600951F7
:100EB00086681EB34569F708202FBFF47AAF4FEA62
:100EC000470C00EB8C0C0CF2280CE646102EFFF4BD
:100ED00070AFBA400668164204BF3243026005D0C4
:100EE000DCF808E002699645FFF463AFCCF80850DF
:100EF000CEF80C50C5F808E0C5F80CC0816044611C
:100F000003F1080550E0416800293AD02146FFF777
:100F100033FE050013D047E014F1400F28BF4FF017
:100F2000FF340CD204F10B00C408E400DFF8040520
:100F3000416821B12146FFF765FC050034D1DFF897
:100F4000F4048268A2421CD3131B4169102B0AD3FC
:100F500062184261836043F0010050609B5044F08E
:100F6000030048600AE000238360436142F003000D
:100F700048605018426842F00102426001F10805E1
:100F800012E0C1688C420BD2091BC1608269A318B0
:100F9000836141F00101596044F00300506029E78A
:100FA0002146FFF789FB0546012000F0A9FA2846F3
:100FB000F2BD002800D17047F8B5A0F10804012067
:100FC00000F07CFADFF86C542A6994421ED36368FF
:100FD00003F00300012819D0D808C0000119DE076A
:100FE00029D4266813F0030300F0E280301873421E
:100FF0001C1994420AD36B699C4200F0CA80F30822
:10100000202B67D2A668E768BC4201D100F014BA71
:10101000B442FBD0D4F804C04FEADC0C4FEACC0C4D
:10102000BCEBC30FF2D1BE4243D12A68012606FAB7
:1010300003F39A432A608C42E8D24A68D307E5D585
:10104000930700F15481AB69994240F0B580E9689B
:101050004018E860AC6140F00101616069698C4250
:1010600002D100216961A960E969814280F0A08014
:10107000DFF8BC03006808B9FFF76AF8A869002820
:1010800000F09680E96829290BD305F2BC12136899
:10109000984203D35468E318984202D39268002A16
:1010A000F5D1E869884280F083804FF0FF30E86135
:1010B0007EE05B0005EB830303F1280C664501D05D
:1010C0009642A3D328339F4201D097429ED3F76024
:1010D000BE60B0E7A669E368A34205D0A76897425F
:1010E00094D3FB609F601DE004F214073B6833B9A2
:1010F00004F110073B68ABB101E067463B6803F2BF
:10110000140CDCF800E0BEF1000FF6D103F1100C76
:10111000DCF800E0BEF1000FEFD19742FFF476AFAC
:1011200000223A60002E86D0E26905EB820202F2CC
:1011300030121768BC4208D113607BB96A6801237A
:10114000E669B3409A436A6075E72A699642FFF4FC
:101150005DAF3269A2420CBF33617361002B3FF473
:101160006AAF2A699342FFF451AF9E6122692AB1A6
:101170002E69B242FFF44AAF1A6193616269002A94
:101180003FF459AF2E69B242FFF440AF5A61936108
:1011900051E70A7902F00302032A7FF44CAFA860FA
:1011A0004A68520852004A6040F0010161600051F3
:1011B000012000F0A5F9F1BD6B69994204D1A9683D
:1011C0004018A8606C61EFE7D208D2001018D3086D
:1011D000202B24D28E68CF68B9423FF417AFB142BA
:1011E0003FF414AFBE4205D1296801229A409143D1
:1011F000296073E0590005EB810101F12802964254
:1012000003D02A699642FFF401AF28318F4203D000
:1012100029698F42FFF4FAAEF760BE605EE08B6929
:10122000CA688A4207D08E682F69BE42FFF4EEAECC
:10123000F26096601EE001F21406326832B901F1E4
:1012400010063268B2B101E03E46326802F214077D
:10125000D7F800C0BCF1000FF6D102F11007D7F8A3
:1012600000C0BCF1000FEFD12F69BE42FFF4CEAE3B
:101270000027376093B3CE6905EB860606F2301679
:101280003768B9420BD1326016468EB96A680123BD
:10129000C96903FA01F122EA010169601EE02E69C1
:1012A000B342FFF4B3AE1E698E420CBF1A615A619D
:1012B000A2B12E69B242FFF4A9AE93610B692BB1C2
:1012C0002E69B342FFF4A2AE13619A61496929B154
:1012D0002B699942FFF49AAE51618A6140F0010195
:1012E0006160005169698C4208D1A86060E75208CA
:1012F00052004A6040F0010161600051C10820299C
:101300001BD24A0005EB820202F228021346102883
:10131000FFF47CAE012606FA01F02968014204BF01
:101320000843286004D0936828698342FFF46EAEB6
:101330009460DC60A360E2603AE7010A08BF002223
:1013400023D0B1F5803F28BF1F221ED2A1F58072A5
:10135000120C02F008029140A1F580531B0C03F01F
:1013600004039940A1F58046360C06F00206C2F14E
:101370000E02D21A921BB14002EBD131CA1D20FAE3
:1013800002F202F0010202EB410205EB820101F2DE
:101390003011E261002363612361012606FA02F342
:1013A0006E681E4207D143EA060068600C60A161C6
:1013B000E460A4602CE009681F2A0EBF00225208D6
:1013C000C2F1190200FA02F200E019464B68DB088C
:1013D000DB0083420ED0D30F01EB830303F1100631
:1013E00052003368002BF0D128698642FFF40EAE1C
:1013F0003460DCE788682A699142FFF407AE9042C6
:10140000FFF404AEC4608C60A060E1600020A061C5
:10141000286A401E28627FF4CBAED5F8C40118B903
:101420004FF0FF302862C3E680680028FCD1F7E760
:10143000BC8D00209C82002080B5012000F06EB899
:1014400000BF50F8041B61B150F8042BD30744BF10
:10145000A9F101039A18002342F8043B091FFAD1AD
:10146000EFE7704706490868002801D00020704760
:10147000044808600449C908C900091A0160704796
:10148000508E002058A0002058A2002010B5224CF9
:10149000206890B1201D00F04CF804F1080000F025
:1014A00048F804F10C0000F044F804F1100000F0DA
:1014B00040F804F1140000F03CF810BD38B50446C3
:1014C000154D286890B9281D00F032F805F1080084
:1014D00000F02EF805F10C0000F02AF805F11000DC
:1014E00000F026F805F1140000F022F80120286031
:1014F000052C04D205EB8400001D00F01BF831BD63
:10150000052800D3704780B5034901EB8000001D1A
:1015100000F011F801BD0000D48D002080B500F06E
:101520000BF8024A11001820ABBEFBE726000200B0
:10153000704770477047704780B500F015F802009B
:101540000023DB431068984204D011000220ABBE98
:10155000002010605068984204D0111D0220ABBEDC
:101560000020506001BD0000004870479401002039
:101570002DE9F04F4FF0000C4FF0000301EB9C5EA3
:10158000BEF90250BEF900400EF5806EBEF9029021
:10159000BEF900800EF5806EBEF90270BEF90060E3
:1015A0000EF5806EBEF902B0BEF900A00EF5806E99
:1015B000D044D944A8EB4A0AA9EB4B0B4FEAA40448
:1015C0004FEAA50504EBA60405EBA705A4EB660608
:1015D000A5EB670704EBA80405EBA905A4EB6808D5
:1015E000A5EB690906EBAB06A7EBAA07A6EB6B0B0D
:1015F00007EB6A0A458020F8044B478020F8046B0B
:10160000A0F8029020F8048BA0F802A020F804BBF8
:1016100003F1010393FAA3FCB3F5807FAED1A0EBF5
:1016200082014FF0100312090FF2341000F1000094
:1016300006B403EB430C6144A2F5803202EB833223
:10164000B1F90250B1F90040A1EB0301B0F902B0C9
:10165000B0F900A000F10400A5EB040E0EFB0BFC9A
:101660000AEB4B0E05FB0ACB04FB0ECAB1F9025084
:10167000B1F90040A1EB0301B0F90290B0F900808C
:1016800000F10400A5EB040E0EFB09FC08EB490E6B
:1016900005FB08C904FB0EC8B1F90250B1F90040BE
:1016A000A1EB0301B0F90270B0F9006000F1040091
:1016B000A5EB040E0EFB07FC06EB470E05FB06C769
:1016C00004FB0EC6B1F90250B1F9004001F100016E
:1016D000D044D944A8EB4A0AA9EB4B0B4FEAA40427
:1016E0004FEAA50504EB264405EB2745A4EBE636B7
:1016F000A5EBE73704EB284405EB2945A4EBE838D4
:10170000A5EBE93906EB2B46A7EB2A47A6EBEB3B0B
:1017100007EBEA3A4D800C8019444F800E80194443
:10172000A1F80290A1F800801944A1F802A021F8C4
:1017300004BBB2F5803283DA03EB430C6144A2F1BF
:1017400001025FEA024E18BFA0EB0C007FF476AFF7
:1017500006BC4FEA830392087FF46AAFBDE8F08FBE
:101760000040000000400000004000005DDD213B23
:10177000A3227E180000412D7EA5412D0000412DA1
:1017800000C000405DDD82E75DDD213B7EA5412D8F
:10179000004000000040000000400000AA2A94120F
:1017A0006B39460649327C0CA8118E2349327C0CD9
:1017B000A3227E1821F77931AA2A9412A8118E2328
:1017C0005DDD213BA3227E180000412D95C6B13F6F
:1017D000461A2B1E58EE3735BEB4C53EA8118E23CF
:1017E0005DDD213B63A97138DF089A28B7CDC53E7E
:1017F0007EA5412D0000412D00C0004063A92B1E95
:1018000021F77931BEB4C53EBEB47C0C58EE3735F5
:1018100061AC213B95C6BAF9BAE571383BA73735BB
:101820005DDD82E75DDD213B7EA5412D21F766D799
:1018300056D53F3D3BA78E23A811C9CAB7CDC53E9B
:1018400061AC7E18AA2AC1C295C6B13FBEB47C0C59
:101850000040000000400000004000001E3BB504B6
:10186000693E9201C83C2403EB356409C83C24035B
:101870006B3946066C30060E1E3BB504EB35640929
:10188000AA2A94126B39460649327C0CAE240917F9
:10189000AF37D607882E8D0F7E1E5D1BEB35640992
:1018A000AA2A941224188C1F1E34F10AB32690150C
:1018B000A8118E2349327C0CA3227E18140B6027BA
:1018C0006C30060E7E1E5D1B7104FB2A882E8D0F68
:1018D000461A2B1EC7FD5A2E9D2C1211FE15E7200D
:1018E00021F77931AA2A9412A8118E2387F0533454
:1018F000B2281314480D202602EAE536B3269015C7
:10190000DF089A289CE32B39AE2409177104FB2ABF
:101910005DDD213BA3227E180000412D4ED7C53C42
:101920009320EF198FFB6C2F78D1153E7E1E5D1B27
:1019300021F77931E2CB0F3F641CC61CB8F2683343
:1019400095C6B13F461A2B1E58EE373597C1FB3F5F
:1019500024188C1F02EAE536F0BCEC3FFE15E720A8
:10196000BAE57138A6B8853FD5133D2282E1DB394F
:10197000BEB4C53EA8118E235DDD213B40B1AF3D15
:10198000790FDA244DD9423C2EAE423C480D202638
:1019900056D53F3D8EAB823A140B602778D1153E69
:1019A00063A97138DF089A28B7CDC53EB1A71236B2
:1019B000A906CE2915CA4F3F78A668337104FB2AC1
:1019C00095C6B13FBCA576303902212C38C3EC3F17
:1019D0007EA5412D0000412D00C00040BCA5CE29B0
:1019E000C7FD5A2EF0BCEC3F78A620268FFB6C2F4B
:1019F00009BAB13FB1A73D2257F976304DB74F3FF5
:101A000063A92B1E21F77931BEB4C53E8EABEF1909
:101A1000ECF474325EB2153E2EAE9015B8F2683317
:101A20002DB03F3D40B1121187F053342EAE423CF1
:101A3000BEB47C0C58EE373561AC213BA6B8D60756
:101A40002BEC1236C8AADB39F0BC240302EAE536D7
:101A500063A9713897C16EFEDCE7B03734A8E5366C
:101A600095C6BAF9BAE571383BA73735E2CB0FF521
:101A70009CE32B3978A6683378D173F082E1DB39A7
:101A8000EDA579314ED7EDEB6DDF823A99A56C2F3C
:101A90005DDD82E75DDD213B7EA5412D9CE33AE3E0
:101AA00052DBB63B99A5FB2A02EA19DF4DD9423C2D
:101AB000EDA59A2887F026DB4ED7C53C78A62026D0
:101AC00021F766D756D53F3D3BA78E23C7FDDFD311
:101AD00063D3AF3D34A8E720710494D078D1153E8C
:101AE00063A92B1E140B8CCD94CF723EC8AA5D1B2C
:101AF000A811C9CAB7CDC53E61AC7E18241850C81C
:101B0000E2CB0F3F2EAE90157E1E25C615CA4F3F65
:101B10002DB09412AE244AC451C8853F5EB28D0FD9
:101B2000AA2AC1C295C6B13FBEB47C0C6C308EC12E
:101B3000E2C4D43F4DB76409EB35B1C038C3EC3FC4
:101B400009BA46061E3B2CC097C1FB3FF0BC2403DC
:101B5000004000000040000000400000D03E2E0188
:101B60009B3F6500363FC9009A3D5B02363FC90086
:101B7000693E92015F3C8803D03E2E019A3D5B0294
:101B80001E3BB504693E9201C83C2403D939E205E5
:101B9000023EF701F43BED038E380E079A3D5B02DF
:101BA0001E3BB5043F373908313DC002463A7E0539
:101BB000EB356409C83C24036B39460692348E0A1F
:101BC0005F3C88038E380E073433B70BF43BED03CC
:101BD000AF37D607D231DF0C8A3B5104CE369D0891
:101BE0006C30060E1E3BB504EB356409022F2B0F3B
:101BF000B23A1A0505352B0A932D5010463A7E0548
:101C00001E34F10A212C7311D939E2053433B70B94
:101C1000AA2A94126B39460649327C0C3129B41336
:101C2000FD38AA065B31410DB327D2148E380E075A
:101C30006C30060E3226EE151F3872077B2FCA0E47
:101C4000AE240917AF37D607882E8D0F262321180B
:101C50003F373908932D50109C213719CE369D08F7
:101C60009D2C12110E204B1A5D360109A42BD311A5
:101C70007E1E5D1BEB356409AA2A9412EB1C6C1CBA
:101C80007835C709AF295413561B791D05352B0A22
:101C9000B2281314BE19841E92348E0AB327D214AC
:101CA00024188C1F1E34F10AB32690158816912033
:101CB000A933540BB1254C16EA1493213433B70BD6
:101CC000AE2409174A139222BF321A0CA923C41753
:101CD000A8118E2349327C0CA3227E18051088247B
:101CE000D231DF0C9C213719610E7E255B31410D0D
:101CF0009320EF19BB0C7126E430A40D891FA71A9D
:101D0000140B60276C30060E7E1E5D1B6D094C287F
:101D1000F42F680E721D121CC40735297B2FCA0EC2
:101D2000641CC61C1B061A2A022F2B0F561B791D7A
:101D30007104FB2A882E8D0F461A2B1EC702D82B42
:101D40000E2EEE0F3519DC1E1C01B22C932D5010F7
:101D500024188C1F72FF882D182DB11011173A20EE
:101D6000C7FD5A2E9D2C1211FE15E7201DFC282FB1
:101D7000212C7311EA14932173FAF22FA42BD3119F
:101D8000D5133D22CAF8B830282B3412BF12E722EF
:101D900021F77931AA2A9412A8118E2379F53632C7
:101DA0002D2AF41291103524D2F3EF32AF295413B7
:101DB000790FDA242CF2A3333129B413610E7E2576
:101DC00087F05334B2281314480D2026E3EEFF3475
:101DD000332873142E0CC12641EDA535B327D21438
:101DE000140B6027A1EB483633273115FA09FE277B
:101DF00002EAE536B3269015DF089A2865E87E37B3
:101E00003226EE15C4073529CBE61238B1254C161B
:101E1000A906CE2932E5A1382F25AB168D05652AF6
:101E20009CE32B39AE2409177104FB2A08E2B03970
:101E30002B24661755038F2B77E0303AA923C4175C
:101E40003902212CE9DEAB3A262321181C01B22CE1
:101E50005DDD213BA3227E180000412DD5DB923BA6
:101E60001F22DB18E4FECF2D4FDAFD3B9C213719F2
:101E7000C7FD5A2ECDD8643C17219319ABFCE42E34
:101E80004ED7C53C9320EF198FFB6C2FD3D5213D46
:101E90000E204B1A73FAF22F5CD4783D891FA71AD3
:101EA00057F97630E8D2C93D041F021B3CF8F930DF
:101EB00078D1153E7E1E5D1B21F779310CD05C3E3A
:101EC000F81DB81B06F6F831A5CE9D3E721D121CFA
:101ED000ECF4743241CDD83EEB1C6C1CD2F3EF32E3
:101EE000E2CB0F3F641CC61CB8F2683388CA403F7F
:101EF000DD1B201D9FF1DF3332C96B3F561B791D5F
:101F000087F05334E1C7913FCE1AD31D6FEFC6342B
:101F100095C6B13F461A2B1E58EE37354EC5CC3FFD
:101F2000BE19841E41EDA5350CC4E13F3519DC1EF8
:101F30002BEC1236CFC2F13FAD18341F16EB7D36B5
:101F400097C1FB3F24188C1F02EAE53665C00040AC
:101F50009B17E31FEFE84B3738BFFF3F11173A20BD
:101F6000DCE7B03711BEF83F88169120CBE6123877
:101F7000F0BCEC3FFE15E720BAE57138D4BBDB3F7F
:101F800074153D21AAE4CF38BFBAC43FEA149321A7
:101F90009CE32B39AFB9A73F5F14E8218EE2843967
:101FA000A6B8853FD5133D2282E1DB39A2B75D3F5C
:101FB0004A13922277E0303AA5B6303FBF12E722AB
:101FC0006DDF823AAFB5FD3E34123B2364DED33A77
:101FD000BEB4C53EA8118E235DDD213BD5B3883E3E
:101FE0001D11E22357DC6D3BF2B2453E91103524C2
:101FF00052DBB63B15B2FC3D051088244FDAFD3BA1
:1020000040B1AF3D790FDA244DD9423C71B05B3D10
:10201000ED0E2C254DD8853CA9AF033D610E7E25E4
:102020004ED7C53CE8AEA53CD40DCF2551D6033DD7
:102030002EAE423C480D202656D53F3D7BADDA3BC7
:10204000BB0C71265CD4783DD0AC6D3B2E0CC12608
:1020500063D3AF3D2BACFA3AA10B11276DD2E33D10
:102060008EAB823A140B602778D1153EF8AA063A57
:10207000870AAF2785D0453E6AAA8439FA09FE2728
:1020800094CF723EE3A9FD386D094C28A5CE9D3E44
:1020900063A97138DF089A28B7CDC53EEBA8E137B0
:1020A0005208E728CCCCEB3E7BA84B37C407352938
:1020B000E2CB0F3F12A8B13636078129FBCA303F69
:1020C000B1A71236A906CE2915CA4F3F57A76E35BC
:1020D0001B061A2A32C96B3F05A7C6348D05652A2F
:1020E00051C8853FBBA61934FF04B02A72C79C3F74
:1020F00078A668337104FB2A95C6B13F3EA6B2327A
:10210000E303452BBAC5C43F0BA6F83155038F2B0B
:10211000E2C4D43FE0A53931C702D82B0CC4E13F5B
:10212000BCA576303902212C38C3EC3FA1A5AF2FD6
:10213000AA016A2C66C2F53F8DA5E42E1C01B22CC3
:1021400097C1FB3F81A5152E8E00FA2CCAC0FF3F18
:102150007EA5412D0000412D00C0004081A56A2CC4
:1021600072FF882D38BFFF3F8DA58F2BE4FECF2D4A
:1021700073BEFB3FA1A5B02A56FE152EB0BDF53F9C
:10218000BCA5CE29C7FD5A2EF0BCEC3FE0A5E72840
:1021900039FD9F2E32BCE13F0BA6FE27ABFCE42E9F
:1021A00077BBD43F3EA611271DFC282FBFBAC43FE2
:1021B00078A620268FFB6C2F09BAB13FBBA62C2531
:1021C00001FBAF2F56B99C3F05A7352473FAF22FB8
:1021D000A6B8853F57A73B23E5F93430F8B76B3FE6
:1021E000B1A73D2257F976304DB74F3F12A83D2198
:1021F000CAF8B830A5B6303F7BA83A203CF8F93091
:1022000000B60F3FEBA8341FAEF739315EB5EB3E99
:1022100063A92B1E21F77931BEB4C53EE3A9201D69
:1022200093F6B93122B49D3E6AAA121C06F6F83123
:1022300088B3723EF8AA021B79F53632F2B2453EF7
:102240008EABEF19ECF474325EB2153E2BACDB189A
:102250005FF4B232CDB1E33DD0ACC417D2F3EF326C
:1022600040B1AF3D7BADAB1645F32C33B5B0783DF7
:102270002EAE9015B8F268332DB03F3DE8AE731422
:102280002CF2A333A9AF033DA9AF54139FF1DF3361
:1022900028AFC53C71B0341213F11934A9AE853C96
:1022A00040B1121187F053342EAE423C15B2EE0FFE
:1022B000FBEF8D34B6ADFD3BF2B2CA0E6FEFC63404
:1022C00041ADB63BD5B3A40DE3EEFF34D0AC6D3BCE
:1022D000BEB47C0C58EE373561AC213BAFB5540B26
:1022E000CCED6E35F6ABD33AA5B62B0A41EDA5354C
:1022F0008EAB823AA2B70109B6ECDC3529AB303A95
:10230000A6B8D6072BEC1236C8AADB39AFB9AA0695
:10231000A1EB48366AAA8439BFBA7E0516EB7D3632
:102320000FAA2B39D4BB51048CEAB136B7A9CF38E8
:10233000F0BC240302EAE53663A9713811BEF70147
:1023400078E9183712A9123838BFC900EFE84B37BF
:10235000C5A8B03765C09BFF65E87E377BA84B37C3
:1023600097C16EFEDCE7B03734A8E536CFC240FD3A
:1023700053E7E137F1A77D360CC413FCCBE61238E6
:10238000B1A712364EC5E6FA42E6423874A7A53523
:1023900095C6BAF9BAE571383BA73735E1C78EF86B
:1023A00032E5A13805A7C63432C963F7AAE4CF38AD
:1023B000D3A6533488CA39F623E4FD38A4A6DF3304
:1023C000E2CB0FF59CE32B3978A6683341CDE6F3D9
:1023D00015E3583950A6EF32A5CEBFF28EE284390C
:1023E0002CA674320CD098F108E2B0390BA6F83163
:1023F00078D173F082E1DB39EDA57931E8D24FEF86
:10240000FCE0063AD3A5F9305CD42DEE77E0303A03
:10241000BCA57630D3D50CEDF2DF593AA9A5F22F41
:102420004ED7EDEB6DDF823A99A56C2FCDD8CFEA70
:10243000E9DEAB3A8DA5E42E4FDAB4E964DED33A97
:1024400085A55A2ED5DB9AE8E1DDFA3A7FA5CF2D96
:102450005DDD82E75DDD213B7EA5412DE9DE6DE698
:10246000DADC473B7FA5B22C77E059E557DC6D3BC2
:1024700085A5212C08E248E4D5DB923B8DA58F2B66
:102480009CE33AE352DBB63B99A5FB2A32E52DE209
:10249000D1DADA3BA9A5652ACBE624E14FDAFD3B88
:1024A000BCA5CE2965E81DE0CED9203CD3A53529B1
:1024B00002EA19DF4DD9423CEDA59A28A1EB18DEBE
:1024C000CDD8643C0BA6FE2741ED19DD4DD8853CE7
:1024D0002CA66027E3EE1EDCCDD7A53C50A6C12676
:1024E00087F026DB4ED7C53C78A620262CF231DAC1
:1024F000CFD6E43CA4A67E25D2F33FD951D6033DE6
:10250000D3A6DA2479F551D8D3D5213D05A73524B2
:1025100021F766D756D53F3D3BA78E23CAF87FD615
:10252000D8D45B3D74A7E72273FA9BD55CD4783D81
:10253000B1A73D221DFCBBD4DFD3933DF1A793216E
:10254000C7FDDFD363D3AF3D34A8E72072FF06D3C6
:10255000E8D2C93D7BA83A201C0131D26DD2E33DBF
:10256000C5A88C1FC70261D1F2D1FC3D12A9DC1EA7
:10257000710494D078D1153E63A92B1E1B06CCCFD5
:10258000FED02D3EB7A9791DC40707CF85D0453EA3
:102590000FAAC61C6D0947CE0CD05C3E6AAA121C5D
:1025A000140B8CCD94CF723EC8AA5D1BBB0CD4CC4F
:1025B0001CCF883E29ABA71A610E21CCA5CE9D3E2B
:1025C0008EABEF19051073CB2ECEB13EF6AB37199B
:1025D000A811C9CAB7CDC53E61AC7E184A1324CA3A
:1025E00041CDD83ED0ACC417EA1483C9CCCCEB3E65
:1025F00041AD09178816E8C857CCFD3EB6AD4C165C
:10260000241850C8E2CB0F3F2EAE9015BE19BEC79E
:102610006ECB203FA9AED214561B31C7FBCA303F48
:1026200028AF1314EB1CA8C688CA403FA9AF5413A7
:102630007E1E25C615CA4F3F2DB094120E20A7C589
:10264000A3C95D3FB5B0D3119C212DC532C96B3FE5
:1026500040B112112623B9C4C1C8783FCDB1501082
:10266000AE244AC451C8853F5EB28D0F3226E0C306
:10267000E1C7913FF2B2CA0EB3277BC372C79C3F3A
:1026800088B3060E31291CC303C7A73F22B4410DEE
:10269000AA2AC1C295C6B13FBEB47C0C212C6DC222
:1026A00027C6BB3F5EB5B70B932D1DC2BAC5C43F4D
:1026B00000B6F10A022FD3C14EC5CC3FA5B62B0AF6
:1026C0006C308EC1E2C4D43F4DB76409D2314FC1E2
:1026D00076C4DB3FF8B79D08343315C10CC4E13F25
:1026E000A6B8D6079234E0C0A1C3E73F56B90E079B
:1026F000EB35B1C038C3EC3F09BA46063F3788C056
:10270000CFC2F13FBFBA7E058E3864C066C2F53FC6
:1027100077BBB504D93945C0FEC1F83F32BCED03E3
:102720001E3B2CC097C1FB3FF0BC24035F3C19C08B
:1027300030C1FD3FB0BD5B029A3D0BC0CAC0FF3F38
:1027400073BE9201D03E03C065C0004038BFC900CF
:1027500000B587B000F0A0FE00F0ACFEDFF85C0C26
:1027600003210491002103914FF4807102910190A3
:1027700003210091032300F2FC320021DFF8400C1A
:1027800001F0E0F905AA0FF6E441032001F027FA71
:1027900000F058FF07B000BD2DE9F04F8DB001F0FB
:1027A000D3FA01F018FC00F05FFFDFF8184C0320AB
:1027B0000490002003904FF40070029004F1140084
:1027C000019008200090082304F501620021DFF841
:1027D000F80B01F0B7F905AA0FF69C41082001F0AB
:1027E000FEF905AA0FF6A041092001F0F8F903202F
:1027F0000490002003904FF48070029004F61400BF
:10280000019009200090034604F541620021DFF8A1
:10281000BC0B01F097F901F049FCDFF8B48B41F2F1
:10282000A860404401900121018701F0EDFC0028DF
:10283000FBD101F00DFDDFF89C6B0020306007E05C
:1028400002F0F9FA322300220021084602F019FBB7
:1028500001980079059041F2A86010F808000199EC
:102860004989ADF82A1001998989ADF82810019994
:10287000C989ADF826100199098AADF8241001998B
:10288000498AADF822100199898AADF82010019982
:10289000C98AADF81E100199098BADF81C10019979
:1028A000498DADF80E100199898DADF80C10019984
:1028B000498BADF81A100199898BADF81810019960
:1028C000C98BADF812100199098CADF8101001995F
:1028D000098F012940F0FB810027BA46059901299B
:1028E000C0F2DB8008F5A0510291C34602F006FB5E
:1028F00005460998294602F00FFB0C900A982946D4
:1029000002F00AFB0B900298008830600AF1010582
:102910006021284602F093FC009032680B9902F087
:10292000F7FE04D8802A0ED042F020020BE00C986B
:10293000009902F0EDFE04D8802A04D042F004028F
:1029400001E022F024023260BDF80200ABF8000082
:10295000BDF80000ABF802000098394602F0EAFE2C
:1029600082465746322300220021084602F089FAA7
:102970006121284602F07FFD00903268089902F03C
:10298000C7FE04D8802A0ED042F010020BE0079850
:10299000009902F0BDFE04D8802A04D042F0020261
:1029A00001E022F01202BDF80200ABF80004BDF80D
:1029B0000000ABF80204802AA8BF8022326002988F
:1029C000028008F5B050008802990988084308F58C
:1029D000B0510880322300220021084602F051FA4B
:1029E00041F2E86000EB0801C88F002840D0C88D94
:1029F0006081088E208141F2287000EB0802508827
:102A0000E0819088A081D088608210892082A368AC
:102A1000E068194602F0D0FE2AD31846216902F078
:102A2000CBFE25D2002102F073FE21D26760508ACE
:102A30006081908A208105A8007802F05FFA014643
:102A4000504602F0CBFE0146A06802F0B5FE07D268
:102A5000DFF8840902F060FA02F03EFF014609E067
:102A6000DFF8781902F054FE02D8DFF86C19F1E7AC
:102A70004FF4FA61284602F039FE32230022002189
:102A8000084602F0FEF9AA460BF1040B0298801CDE
:102A9000029005988245FFF636AF676041F2E86024
:102AA00000EB0801E0884885A08888852078002808
:102AB00000F00D814FF0000A05980128C0F2058151
:102AC00008F5A0574FF4967508F60009DFF80809D5
:102AD000039902F013FF0B906078002800F0DC806F
:102AE0000AF1010B4221584602F082FA0023052226
:102AF0000021084602F0C5F92221584602F078FA72
:102B00004FF4FA7300221146084602F0BAF902F0B7
:102B100079FA0290DFF8C81802F04EFE07D2BDF82D
:102B20000A00A9F80000BDF80800A9F80200029800
:102B3000002102F041FE05D8306880281CBF40F01B
:102B4000010030605FFA8AF002F023F8002840F0BC
:102B50009A800298002102F0DBFD80F09480DFF87B
:102B6000801802F029FE80F08E800221A8B201F0C8
:102B70003BFBE080012300220021084602F081F99E
:102B80000221A81C80B201F02FFBA08001230022AB
:102B90001146084602F075F9D4F804B0E088A9F8A7
:102BA0000008A088A9F802080298594602F016FE0B
:102BB0000146069802F000FE05D23068802810D049
:102BC00040F008000CE00846049902F0F5FD30687A
:102BD00004D2802805D040F0010001E020F0090077
:102BE00030600198408BE0800198808BA080029833
:102BF000594602F083FE0B9902F08EF9009060684E
:102C0000DFF8E01702F096FD594602F085F901461B
:102C1000009802F0E3FD0146DFF8BC0702F06EFE0B
:102C20000090DFF8C41702F073FD07D8DFF8BC1777
:102C300002F0C2FD38BFDFF8A0070CD3002102F07C
:102C4000BBFD38BF009107D3DFF8A01702F060FD8D
:102C500002D8DFF89C0700900398009902F058FD15
:102C6000306804D8802805D040F0400001E020F012
:102C700040003060BDF80200A9F80004BDF8000073
:102C8000A9F8020405E03068802808D040F0400030
:102C900030603068802802DA3068802801DB8020CC
:102CA00030603068388008F5B050008837F8021B73
:102CB000084308F5B05108800AF1010A09F1040936
:102CC0002D1D05988245FFF607AF00202070019862
:102CD00080790590019880780199498FADF82A1084
:102CE0000199898FADF828100199C98FADF8261088
:102CF00041F2E86131F80810ADF8241041F2E861C2
:102D000001EB08056988ADF82210A988ADF82010FC
:102D1000E988ADF81E102989ADF81C10698BADF853
:102D20000E10A98BADF80C106989ADF81A10A9899D
:102D3000ADF81810E989ADF81210298AADF8101015
:102D40000027298D01297FF47DADBA460599012917
:102D5000C0F2DB8008F5A851029108F2002902F0C8
:102D6000CDF883460998594602F0D6F80C900A9897
:102D7000594602F0D1F80B900298008830600AF1B1
:102D8000010A6021504602F056FF009032680B990C
:102D900002F0BEFC04D8802A0ED042F020020BE0E4
:102DA0000C98009902F0B4FC04D8802A04D042F0B8
:102DB000040201E022F024023260BDF80200A9F80A
:102DC0000000BDF80000A9F802000098394602F0A2
:102DD000B1FC83465F46322300220021084602F000
:102DE00050F86121504603F044F800903268089989
:102DF00002F08EFC04D8802A0ED042F010020BE0C4
:102E00000798009902F084FC04D8802A04D042F08C
:102E1000020201E022F01202BDF80200A9F800044B
:102E2000BDF80000A9F80204802AA8BF8022326001
:102E30000298028008F5B05000880299098808437A
:102E400008F5B0510880322300220021084602F024
:102E500018F841F2287030F80800002841D0E88EB8
:102E60006081288F208141F2287000EB0802508990
:102E7000E0819089A081D0896082108A2082A36835
:102E8000E068194602F098FC2BD31846216902F03D
:102E900093FC26D2002102F03BFC22D26760D08A4C
:102EA0006081108B20810198C088D0B102F026F893
:102EB0000146584602F092FC0146A06802F07CFCF4
:102EC00007D2DFF8140502F027F802F005FD0146ED
:102ED00009E0DFF8081502F01BFC02D8DFF8F8144F
:102EE000F1E74FF4FA61504603F002F93223002271
:102EF0000021084601F0C5FF09F104090298801C71
:102F0000029005988245FFF637AF6760E0886886D3
:102F1000A088A886A078002800F00A814FF0000A57
:102F200005980128C0F2028108F5A8500B904FF4D3
:102F30004B7708F60029DFF8A004039902F0DEFCC5
:102F40000C90E078002800F0D4800AF1010B4221B7
:102F5000584602F045FD002305220021084601F0F5
:102F600090FF2221584602F03BFD4FF4FA730022F5
:102F70001146084601F085FF02F03CFD0290DFF8A3
:102F8000601402F019FC07D2BDF80A00A9F800008D
:102F9000BDF80800A9F802000298002102F00CFC1C
:102FA00005D8306880281CBF40F0010030605FFA0F
:102FB0008AF001F057FE002840F09280029800212C
:102FC00002F0A6FB80F08C80DFF8141402F0F4FB12
:102FD00080F086800221B8B201F006F9E08001237A
:102FE00000220021084601F04CFF0221B81C80B2EB
:102FF00001F0FAF8A080012300221146084601F0F2
:1030000040FFD4F804B0E088A9F80008A088A9F827
:1030100002080298594602F0E1FB0146069802F0C8
:10302000CBFB05D23068802810D040F008000CE0BF
:103030000846049902F0C0FB306804D2802805D00D
:1030400040F0010001E020F0090030606889E08074
:10305000A889A0800298594602F050FC0C9901F012
:103060005BFF00906068DFF87C1302F063FB594659
:1030700001F052FF0146009802F0B0FB0146D6482D
:1030800002F03CFC0090D84902F042FB05D8D74939
:1030900002F092FB38BFD0480AD3002102F08CFB2B
:1030A00038BF009105D3D14902F032FB01D8D04896
:1030B00000900398009902F02BFB306804D8802818
:1030C00005D040F0400001E020F040003060BDF845
:1030D0000200A9F80004BDF80000A9F8020405E008
:1030E0003068802808D040F0400030603068802888
:1030F00002DA3068802801DB802030600B9831686C
:10310000018008F5B05000880BA90B689A1C0A6072
:103110001988084308F5B05108800AF1010A09F13D
:1031200004093F1D05988245FFF60BAF0020A070F3
:103130000A2300220021084601F0A3FE08F5B05042
:10314000008800284FF48051AA483FF479AB01F081
:1031500070FEFFF777BB2DE9F04F8DB000208DF8A2
:103160000200ADF80000A44C44F22830A0800020FA
:10317000E080DFF888B201208BF8000002F0F6FF53
:10318000904F9F4D63E00021F970E862E88D308137
:10319000A88D708102A803F01EF8284602A92C22EF
:1031A00003F033F8B5F830A06E8E28689DF8021051
:1031B000814243D08DF80200387818BB68689DF8CA
:1031C000011081421ED08DF801002088E8856088BA
:1031D000A8850AF1010AE86A03F042F880468946A8
:1031E0001FFA8AFA504603F06DF80022854B03F06F
:1031F00077F842464B4603F097F903D80120387020
:103200004FF0000AB878C8B968689DF8001081428C
:1032100014D08DF80000208EE885608EA885761C7D
:10322000B6B2304601F06AFE774902F0D7FAE96A91
:1032300002F06EFA02D80120B87000266E86A5F85A
:1032400030A00A2300220021084601F01AFE9BF854
:10325000000001280CBF002201224FF400516548F4
:1032600001F0EBFD9BF80000401C8BF80000C0B2A1
:10327000022804BF00208BF8000003F091F9634995
:10328000087003F040FB04F060F964210B2000F0AB
:10329000E3FDA88603F016F802460B465C485D493C
:1032A00004F006FE02460B464FF033305A4904F054
:1032B000D1FE02460B460020584904F0F9FD0022D9
:1032C000574B03F00DF804F039FFA188ADF8061054
:1032D000E188ADF80410534902F01AFA05D80199B3
:1032E00002F06AFA38BF012100D300217970E86248
:1032F0004D48E98D01800646A88D708064210A2022
:1033000000F0AAFDA88602F0DDFF02460B46474802
:10331000474904F0CDFD02460B464FF06630454963
:1033200004F098FE02460B4600203C4904F0C0FD24
:1033300000223B4B02F0D4FF04F000FFA18EADF859
:103340000610E18EADF80410364902F0E1F93FF6BF
:103350001AAF019902F030FABFF415AF012113E75B
:10336000F8B5354C41F224754FF4B056184F0AE0C9
:103370000121204601F05DFD0020F05300230122D1
:10338000014601F07EFDF05B0028F1D0E85B0028EB
:10339000F2D00121204601F04EFD00230122002140
:1033A000084601F06EFD0121204601F042FD002398
:1033B00002221946084601F064FDDDE79C7E0020EC
:1033C00099270008846E00205731000861330008F7
:1033D0004C560020A08D00200000C8420100504142
:1033E000E0EF7F43000080BF0100C8420000F042D0
:1033F000003C1C46000C0140226D00200C8D00207A
:10340000B48C002000004E40000070429E0100205D
:10341000295C8FC2F5280240B31EB2C000003940BB
:1034200000408F40FEFFFFBF626D002052B81E8536
:10343000EB5102406659B2C00008014080B520201F
:1034400004F0C8FE50B1202004F0CEFE012101207E
:1034500004F0E6FE400758BF00F09DFC01BD704738
:10346000704770477047704770470000537461722F
:1034700074205461736B00004D4F444255532053E8
:103480007461747573000000414C41524D205374B7
:10349000617475730000000004F078BF10B5034C30
:1034A000204604F0A7FF606810BD0000008E0020D9
:1034B000F4E7000030B587B000F034FDDFF8544584
:1034C00000206063A070E0702072E07120612062D3
:1034D000E061A0616070A071042104F10C0005F0AE
:1034E0002BF8002020716071E062606241F2B80543
:1034F0004FF4FD61281900F07BF98021DFF81805F1
:1035000000F076F92819014641F214121219152318
:103510004A613F2581F84C50002581F84D5001F259
:103520005C0102F25C025B1EF2D14D613F2281F828
:103530004C2081F84D502563A0624FF4486104F19E
:10354000380000F055F904F2380004F25801632203
:1035500000F8045B40F80B1B3F2300F8013B00F828
:10356000105B2031521EF3D1057045603F21C173BD
:10357000057404F23800606104F0E2FF05F006F81B
:103580000320049003958020029004F6B860019017
:103590004FF6FF7000901F2341F2B4000219002182
:1035A000DFF8780400F0CEFA0DF115020FF2744145
:1035B0001F2000F014FB032004900395802002904C
:1035C00004F6B84001904FF6FE7000901E2304F6FA
:1035D000B4622946DFF8480400F0B4FA05AA0FF2F5
:1035E00054411E2000F0FBFA00F09DFC04F0E8FFBF
:1035F00007B030BD38B5DFF81C44E079012820D190
:1036000004F0E0FF0546A07808B1401EA070A07845
:10361000E178084312D100F014F9607921798842E9
:103620000CD0DFF8F41351F82000E062816B491CE4
:1036300081632069401C206104F0DDFF284604F00E
:10364000C5FF31BD10B5DFF8CC43E07958B900F0C3
:10365000F8F860792071DFF8C01351F82000E062BB
:10366000606204F0B6FF10BD10B5022001F0EAFB65
:1036700004F0A8FFDFF89C430021216204F0A6FFBC
:10368000642001F0DFFB04F09DFF216AA1610121AC
:103690006170BDE8104004F099BF38B500F08AFCB5
:1036A00004F090FFDFF86C43616B491C616304F028
:1036B0008DFFE079012839D1607A38B1022801D034
:1036C00034D301E0012000E000206072256B95F802
:1036D00032001F282AD004F075FF05F214014A8B2E
:1036E000EAB1521E4A8392B2CAB90A7F37231A42FC
:1036F0001DBF02F0C8020A77012200224A77097F23
:1037000009070CD405F23401A2798B781A43A2710F
:1037100095F834201219137B4978194311736D6998
:1037200004F054FF95F832001F28D4D131BDF8B50C
:1037300004460FF21035A07A405D0619F67A755DE1
:1037400005EBC005EDB2DFF8D06256F8256006F251
:103750001C074FF0000CA7F812C0B960397D9143E7
:1037600039757B75397D090709D4AA498A79BB7EE9
:103770001A438A714018017B7A7E114301732146F6
:10378000304600F008F8796819B1304600F016F8B4
:10379000F4612846F2BD10B490F83420521800F2BB
:1037A0003400D37A4478A343D372D27A22B98A7A86
:1037B000807822EA0000887210BC704770B490F8DC
:1037C000342000F23400837840780C68DB43C04337
:1037D00064B11519EE7A0640EE72ED7A15B9A57A44
:1037E0001D40A57251F8044F002CF2D170BC7047F7
:1037F00031B1002200F8012B491E89B20029F8D10D
:10380000704738B504F0DEFE0446824DA878E978AA
:10381000084311D100F015F86879297988420BD056
:103820007D4951F82000E862816B491C8163286959
:10383000401C286104F0DBFE2046BDE8324004F065
:10384000C5BE74480FF2FC118279525C13181B7BC1
:10385000595C01EBC20141717047002204E011F88C
:10386000013B00F8013B521C0B78002BF7D10021E3
:103870000170D0B270470021027822B1491C10F8C3
:10388000012F002AFAD1C8B2704780B504F09AFE21
:1038900060490A6A521C0A6204F098FE00F046FB76
:1038A000F4E710B55B4C607828B9C82001F0CAFA7B
:1038B00060780028F9D0A0696421B0FBF1F0A06124
:1038C00018B92070FF2000F0EBF904F07BFE216AAC
:1038D000E1610021216204F079FEE069A169B0FB99
:1038E000F1F0C0F16400207000F022FB00F004F859
:1038F000642001F0A7FAE8E730B583B00024464D14
:1039000000A9204600F09DF950B9286840B101286F
:1039100006D0C168826802EB81014164019981642B
:10392000641C2D1D202CEBD303B030BD2DE9F24FCC
:103930008246904699460A9DDDF82CB00C9C04F016
:1039400041FE344EB76A002F5FD07969B16204F04E
:103950003DFE0098386087F832A0002087F83000DC
:1039600087F83100F885C7F804B0FD60C7F8088013
:103970003C82A7F8129087F837004FEADA0087F800
:1039800034000AF0070187F83310012202FA00F030
:1039900087F8360002FA01F087F835000020F86158
:1039A0003862B8627862B8633864F8637864B8647F
:1039B0003F2087F84C00002087F84D00384600F083
:1039C000F7FA384600F0B0FA04F0FCFD124941F86D
:1039D0002A70316B79610021B961316B01B18F615E
:1039E0003763B17997F836201143B17197F83410E5
:1039F00089190A7B97F835301A430A73317A491CC2
:103A0000317204F0E3FD002002E004F0DFFD42200B
:103A1000BDE8F28FAC3D0020CC8900208B38000837
:103A2000A338000875432F4F532D49492049646C32
:103A30006500000075432F4F532D49492053746191
:103A400074000000000001000200010003000100FA
:103A50000200010004000100020001000300010057
:103A60000200010005000100020001000300010046
:103A70000200010004000100020001000300010037
:103A80000200010006000100020001000300010025
:103A90000200010004000100020001000300010017
:103AA0000200010005000100020001000300010006
:103AB00002000100040001000200010003000100F7
:103AC00002000100070001000200010003000100E4
:103AD00002000100040001000200010003000100D7
:103AE00002000100050001000200010003000100C6
:103AF00002000100040001000200010003000100B7
:103B000002000100060001000200010003000100A4
:103B10000200010004000100020001000300010096
:103B20000200010005000100020001000300010085
:103B30000200010004000100020001000300010076
:103B4000020001002DE9F74F84B09846109CDDF883
:103B50004490129E139F149D04F034FDDFF8CC11A5
:103B6000097819B104F032FD3C2035E0C246DFF897
:103B7000A8B15BF82A1061BB01214BF82A1004F0B0
:103B800025FDAAB23146484600F0D2F8ABB2069AFB
:103B90000599049800F0CEF90146ADB2029501975F
:103BA0000096A3B24A464046FFF7C0FE040007D184
:103BB000DFF874010078012809D1FFF722FE06E042
:103BC00004F000FD00214BF82A1004F0FFFC204611
:103BD00002E004F0FBFC282007B0BDE8F08FF8B548
:103BE00006460D4614465148007808B1122026E0DA
:103BF00004F0E8FC0746FF2E03D14848006890F81F
:103C00003260454850F8266026B9384604F0DEFC9C
:103C1000432014E0012EF8D02846FFF72CFE102890
:103C200004D3384604F0D2FC412008E0294606F1CE
:103C30004C00FFF712FE384604F0C8FC002020704C
:103C4000F1BDF8B505460C4600202060606004F028
:103C5000B9FCFF2D03D13149096891F832502E4942
:103C600051F8251001B953E00129FCD00A7CD20794
:103C700003D404F0ABFC4520F2BD0025CE688F686C
:103C800004F0A4FC386820B96D1C57F8040F002814
:103C9000FAD0A8002060701B800060600020F2BD98
:103CA000F8B5054604F08EFC1C49096891F83210FD
:103CB000FF2D02D10D46012402E08D42FBD00024ED
:103CC000154951F8251019B904F080FC4820F2BDBF
:103CD000012900D11CE001F230021379104D5E5D24
:103CE0005779BE435E5505D10E4B1D78927925EA72
:103CF00002021A7091F8302042F0080281F8302058
:103D000004F064FC012C08BFFFF77BFD0020F2BD2E
:103D100004F05CFC4320F2BDCC890020D03D0020A3
:103D2000B83D0020B23D0020B33D0020AE3D002054
:103D300002F00302032A06D129B1491E002240F8ED
:103D4000042B0029F9D1704780B504F08BFC0121C8
:103D50004FF4003004F0B0FB01214FF4802004F058
:103D6000ABFB012140F27D2004F09DFB00F084F8C4
:103D700000F012F804F000FD022004F01DFB04F036
:103D800003FF02F0E9FB05F013F805F029F8BDE8A0
:103D9000014005F03EB8704710B586B001210420FF
:103DA00004F081FB0320ADF8000000208DF8030033
:103DB00000A9274800F0D4FF0020019001208DF8D1
:103DC00008008DF809004FF4602003900020049053
:103DD00001208DF814001F4C01A9204605F036F88B
:103DE000052301220B21204605F074F8012120460D
:103DF00005F04AF8204605F050F8204605F052F844
:103E00000028FAD1204605F051F8204605F053F875
:103E10000028FAD10121204605F053F806B010BD64
:103E200010B50C4C072301220146204605F052F83C
:103E30000121204605F045F80221204605F08CF8C6
:103E40000028F9D02046BDE8104005F07DB80000FC
:103E50000010014000240140F8B5044600250E0082
:103E600006D037462046FFF7DBFF45197F1EF9D104
:103E7000B5FBF6F080B2F2BD80B500214FF00060D6
:103E800005F0A4F84FF4A06005F06EF827208DF837
:103E9000000001208DF8010000208DF802000120B3
:103EA0008DF8030000A805F064F826208DF80000C6
:103EB00001208DF8010000208DF8020001208DF80E
:103EC000030000A805F055F834208DF8000000200C
:103ED0008DF8010002208DF8020001208DF803000A
:103EE00000A805F046F835208DF8000000208DF878
:103EF000010002208DF8020001208DF8030000A8C7
:103F000005F037F825208DF8000000208DF801001D
:103F100003208DF8020001208DF8030000A805F0B1
:103F200028F801BD70477047FFF799BAFFF798BAB4
:103F3000FFF797BA4FF0807342F804391060101FF2
:103F40006FF0010240F804294FF0123240F80429C2
:103F50004FF0033240F804294FF0023240F80429B0
:103F60004FF0013240F8042940F804194FF01131A4
:103F700040F804194FF0103140F804194FF009319E
:103F800040F804194FF0083140F804194FF0073198
:103F900040F804194FF0063140F804194FF005318C
:103FA00040F804194FF0043101607047FFF75ABA26
:103FB000FFF759BAFFF758BA80B504F003FB11496F
:103FC0000A78521C0A7004F001FBFFF766FBBDE89B
:103FD0000140FFF70FBB10B50B4CFFF769FA4FF428
:103FE0007A71B0FBF1F0401E60600848FF2101705B
:103FF000206840F005002060206840F0020020604A
:1040000010BD0000AE3D002010E000E023ED00E018
:104010002DE9F04F83B007460024002F43D0424DD6
:10402000424E02F045F9CDE900014FF060594FF0E2
:104030008548C7B328680004001400F055FF4146C6
:1040400000F06AFF494600F067FF824655F8040B0E
:10405000001400F049FF414600F05EFF494600F0C1
:104060005BFF83465046514600F056FF8246584655
:10407000594600F051FF514601F05CFB02F0F0F8A8
:1040800004F0B8FFDDE9002302F02AF904F056F845
:104090004FF08F4100F040FF01F01EFC46F8040B8A
:1040A000641CBC42C6D303B0BDE8F08F38B5204CC9
:1040B00004F28001084610220A2334F8025B5D43B3
:1040C0002D0440F8045B34F8025B5D432D0440F896
:1040D000045B34F8025B5D432D0440F8045B34F864
:1040E000025B5D432D0440F8045B521EE5D1402283
:1040F0000D4804F0F7FF4020FFF78AFF0B480D49F9
:10410000102250F8043B21F8023B50F8043B21F800
:10411000023B50F8043B21F8023B50F8043B21F8E5
:10412000023B521EEDD131BDB0850020B08600208B
:104130000000002084840020400001D0401EFDD1FA
:10414000704710B5044604F038FD200A4000A03046
:10415000C0B204F0CEFD04F06DFDE0B204F0C9FD84
:1041600004F068FD04F029FDA12004F0C2FD04F074
:1041700061FD002004F0EDFD044604F039FD204609
:1041800010BD38B504460D4604F017FD200A400066
:10419000A030C0B204F0ADFD04F04CFDE0B204F07C
:1041A000A8FD04F047FD284604F0A3FD04F042FDFD
:1041B00004F01EFD42F21070BDE83240BCE72DE96C
:1041C000F04104468846164600275EB1002528FACD
:1041D00005F1C9B2381980B2FFF7D3FF7F1C08354B
:1041E000B742F4DBBDE8F08170B50C4600254CB158
:1041F0002018461EB0B2FFF7A4FF00EB0525761E7F
:10420000641EF7D1284670BD10B540F22B1420462D
:10421000FFF797FF552801D1002010BD00F09FFA4D
:1042200055212046FFF7ADFF01230022002108465B
:1042300000F027FE2046FFF784FF044601230022FA
:104240001146084600F01DFE552CE5D0012010BD9A
:1042500038B541F2A865DFF8E04A02210020FFF7F7
:10426000C3FF2853012300220021084600F009FE65
:104270002D1902210846FFF7B7FF688001230022AD
:104280001146084600F0FDFD02210820FFF7ACFFB3
:10429000A880012300221146084600F0F2FD022109
:1042A0000A20FFF7A1FFE8800123002211460846FB
:1042B00000F0E7FD02211A20FFF796FF6881012335
:1042C00000221146084600F0DCFD02211C20FFF709
:1042D0008BFFA881012300221146084600F0D1FD82
:1042E00002211E20FFF780FFE881012300221146F2
:1042F000084600F0C6FD02212020FFF775FF288246
:10430000012300221146084600F0BBFD02212220B5
:10431000FFF76AFF6882012300221146084600F079
:10432000B0FD02212420FFF75FFFA88201230022B5
:104330001146084600F0A5FD02212620FFF754FF94
:10434000E882012300221146084600F09AFD02216E
:104350002820FFF749FF2883012300221146084641
:1043600000F08FFD02212A20FFF73EFF6883012322
:1043700000221146084600F084FD02212C20FFF7A0
:1043800033FFA883012300221146084600F079FD7F
:1043900002212E20FFF728FFE88301230022114687
:1043A000084600F06EFD02213020FFF71DFF288433
:1043B000012300221146084600F063FD02213A2045
:1043C000FFF712FF6885012300221146084600F01E
:1043D00058FD02213C20FFF707FFA885012300229A
:1043E0001146084600F04DFD02213E20FFF7FCFE7D
:1043F000E885012300221146084600F042FD022113
:104400004020FFF7F1FE28860123002211460846CE
:1044100000F037FD02214220FFF7E6FE6886012307
:1044200000221146084600F02CFD02213B20FFF738
:10443000DBFEA886012300221146084600F021FD7C
:104440000020E88601230246014600F01AFD022101
:104450004820FFF7C9FE288701230022114608469D
:1044600000F00FFD02214A20FFF7BEFE68870123FE
:1044700000221146084600F004FD02214C20FFF7FF
:10448000B3FEA887012300221146084600F0F9FC7C
:1044900002214E20FFF7A8FEE887012300221146E3
:1044A000084600F0EEFC41F2E86502215020FFF7DB
:1044B0009BFE2853012300221146084600F0E1FC30
:1044C0002D1902215220FFF78FFE68800123002260
:1044D0001146084600F0D5FC02215420FFF784FE67
:1044E000A880012300221146084600F0CAFC0221E0
:1044F0005620FFF779FEE880012300221146084686
:1045000000F0BFFC02215820FFF76EFE2881012336
:1045100000221146084600F0B4FC02215A20FFF7A1
:1045200063FE6881012300221146084600F0A9FCC1
:1045300002215C20FFF758FEA881012300221146CA
:10454000084600F09EFC02215E20FFF74DFEE88148
:10455000012300221146084600F093FC022160204E
:10456000FFF742FE2882012300221146084600F090
:1045700088FC02216A20FFF737FE688301230022AE
:104580001146084600F07DFC02216C20FFF72CFE4E
:10459000A883012300221146084600F072FC022184
:1045A0006E20FFF721FEE883012300221146084612
:1045B00000F067FC02217020FFF716FE288401231B
:1045C00000221146084600F05CFC02217220FFF731
:1045D0000BFE6884012300221146084600F051FCBE
:1045E00002217420FFF700FEA88401230022114657
:1045F000084600F046FC02217820FFF7F5FD2885EB
:10460000012300221146084600F03BFC0020E8840C
:104610000221DA20FFF7E8FDA887012300221146D6
:10462000084600F02EFC0020E887012302460146E0
:1046300000F027FC41F22875002028530123024690
:10464000014600F01EFC2C190221E420FFF7CCFDEE
:104650006080012300221146084600F012FC02216E
:10466000E620FFF7C1FDA080012300221146084685
:1046700000F007FC0221E820FFF7B6FDE0800123EF
:1046800000221146084600F0FCFB0221EA20FFF759
:10469000ABFD2081012300221146084600F0F1FB0A
:1046A0000221EC20FFF7A0FD6081012300221146CA
:1046B000084600F0E6FB0221EE20FFF795FDA08101
:1046C000012300221146084600F0DBFB0221F02006
:1046D000FFF78AFDE081012300221146084600F021
:1046E000D0FB0221F220FFF77FFD20820123002270
:1046F0001146084600F0C5FB02214FF48270FFF717
:1047000073FD6082012300221146084600F0B9FBC8
:1047100002214FF48370FFF767FDA082012300227E
:104720001146084600F0ADFB02214FF48470FFF7FC
:104730005BFDE082012300221146084600F0A1FB48
:1047400002214FF48570FFF74FFD208301230022E3
:104750001146084601B0BDE8304000F092BB2DE99B
:10476000F84F41F2A865DFF8D04506202853022211
:1047700006210020FFF723FD2D1906206880022264
:1047800001461046FFF71BFD0020A88002220146CB
:104790000820FFF714FD0020E880022201460A20CD
:1047A000FFF70DFDDFF894050090BDF80210698158
:1047B00002221A20FFF703FDBDF80000A8810222A3
:1047C00001461C20FFF7FBFCDFF874050090BDF8E4
:1047D0000210E98102221E20FFF7F1FCBDF8000063
:1047E0002882022201462020FFF7E9FCDFF8546509
:1047F0000096BDF80210698202222220FFF7DFFC3A
:10480000BDF80000A882022201462420FFF7D7FC51
:10481000002000900146E98202222620FFF7CFFC0B
:10482000BDF800002883022201462820FFF7C7FCBC
:104830004FF07F570097BDF80210698302222A20AB
:10484000FFF7BDFCBDF80000A883022201462C2022
:10485000FFF7B5FCDFF8F084CDF80080BDF802105A
:10486000E98302222E20FFF7AAFCBDF8000028846D
:10487000022201463020FFF7A2FCDFF8D094CDF8E9
:104880000090BDF80210698502223A20FFF797FCDC
:10489000BDF80000A885022201463C20FFF78FFCEE
:1048A000DFF8ACA4CDF800A0BDF80210E985022223
:1048B0003E20FFF784FCBDF8000028860222014656
:1048C0004020FFF77CFCDFF88CB4CDF800B0BDF8D9
:1048D0000210698602224220FFF771FCBDF8000039
:1048E000A886022201464420FFF769FC0020E886E2
:1048F00001202887022201464820FFF760FCDFF8EC
:104900003C040090BDF80210698702224A20FFF79C
:1049100056FCBDF80000A887022201464C20FFF794
:104920004EFCDFF81C040090BDF80210E98702225B
:104930004E20FFF744FC41F2E865BDF80000285323
:10494000022201465020FFF73AFC0096BDF8021003
:104950002D19698002225220FFF731FCBDF80000BA
:10496000A880022201465420FFF729FC0020009075
:104970000146E98002225620FFF721FCBDF8000025
:104980002881022201465820FFF719FC0097BDF844
:104990000210698102225A20FFF711FCBDF80000C5
:1049A000A881022201465C20FFF709FCCDF80080B7
:1049B000BDF80210E98102225E20FFF700FCBDF87D
:1049C00000002882022201466020FFF7F8FBCDF8A4
:1049D0000090BDF80210698302226A20FFF7EFFB06
:1049E000BDF80000A883022201466C20FFF7E7FB18
:1049F000CDF800A0BDF80210E98302226E20FFF777
:104A0000DEFBBDF800002884022201467020FFF77B
:104A1000D6FBCDF800B0BDF80210698402227220E6
:104A2000FFF7CDFBBDF80000A884022201467420E8
:104A3000FFF7C5FB0020E8840120288502220146FB
:104A40007820FFF7BCFB0020E88702220146DC202B
:104A5000FFF7B5FB41F228750020285302220146DA
:104A6000DE20FFF7ACFB0020009006462C19668084
:104A700002223146E420FFF7A2FBBDF80000A0802F
:104A8000054602222946E620FFF799FBE68002222E
:104A90003146E820FFF793FBBDF800002081022299
:104AA0002946EA20FFF78BFB668102223146EC2083
:104AB000FFF785FBBDF80000A08102222946EE2009
:104AC000FFF77DFBE68102223146F020FFF777FBFE
:104AD000BDF80000208202222946F220FFF76FFB7A
:104AE0009D480090BDF802506582022229464FF48D
:104AF0008270FFF764FBBDF80000A0820646022228
:104B000031464FF48370FFF75AFBE58202222946B3
:104B10004FF48470FFF753FBBDF80000208302229E
:104B200031464FF48570FFF74AFB4FF496744FF40B
:104B300080750021A0B2FFF724FB01230022002191
:104B4000084600F09EF90021601C80B2FFF719FBB7
:104B5000012300221146084600F093F90021A01C11
:104B600080B2FFF70EFB012300221146084600F039
:104B700088F90021E01C80B2FFF703FB012300222B
:104B80001146084600F07DF9241D6D1ED1D1BDE807
:104B9000F18F70B582B00446A50005F22C160221F3
:104BA000B0B2FFF721FBADF8020001230022002183
:104BB000084600F066F905F597750221A8B2FFF7DF
:104BC00013FBADF80000012300221146084600F057
:104BD00058F90098002100F09BFD05D25F4900F0D4
:104BE000EBFD01D2002076BD534800EB8404022285
:104BF000B4F80018B0B2FFF7E2FA01230022002156
:104C0000084600F03EF90222B4F80218A8B2FFF7F5
:104C1000D6FA012300221146084600F032F902219B
:104C2000B0B2FFF7E1FAADF802000123002211460D
:104C3000084600F026F90221A8B2FFF7D5FAADF830
:104C40000000012300221146084600F01AF90098DE
:104C5000002100F05DFD03D2404900F0ADFDC1D35D
:104C6000012076BD70B582B00446A50005F22C3651
:104C70000221B0B2FFF7B8FAADF80200012300221A
:104C80000021084600F0FDF805F22E350221A8B2F9
:104C9000FFF7AAFAADF800000123002211460846EA
:104CA00000F0EFF80098002100F032FD05D22B490A
:104CB00000F082FD01D2002076BD1F4800EB840485
:104CC0000222B4F8001AB0B2FFF779FA01230022E9
:104CD0000021084600F0D5F80222B4F8021AA8B262
:104CE000FFF76DFA012300221146084600F0C9F8CB
:104CF0000221B0B2FFF778FAADF8020001230022DA
:104D00001146084600F0BDF80221A8B2FFF76CFA80
:104D1000ADF80000012300221146084600F0B1F86A
:104D20000098002100F0F4FC03D20C4900F044FD8F
:104D3000C1D3012076BD00004C5600200000204069
:104D40000000E03F00003442CDCC4C3F0000A042C8
:104D5000000028439A99993E00005841E0EF7F43B4
:104D60002DE9F041CB7803F00F02DB0644BF8B78CE
:104D70001A430B88DCB22CB3D0F800C00024012504
:104D80000F2605FA04F7BE460EEA0308F04514D1D3
:104D90004FEA840E06FA0EF82CEA080C02FA0EFE10
:104DA0004EEA0C0C91F803E0BEF1280F08BF4761F2
:104DB00003D0BEF1480F08BF0761641C082CE0D384
:104DC000C0F800C04FF48074A34228D3D0F804C0C8
:104DD000002401250F2604F1080705FA07F7BE464F
:104DE0000EEA0308F04515D14FEA840E06FA0EF8D4
:104DF0002CEA080C02FA0EFE4EEA0C0C91F803E0C5
:104E0000BEF1280F08BF476191F803E0BEF1480FDB
:104E100008BF0761641C082CDDD3C0F804C0BDE8DE
:104E2000F0818068FFE70140481E8041C043C00F09
:104E300070470161704741617047002A14BF0161EA
:104E400041617047F8B5044623480078C0B9BCB149
:104E500003F0B8FB2149096801F22E029379204D35
:104E60005E5DD779BE435E5505D11E4B1D78127A23
:104E700025EA02021A70CC8503F0A8FBFEF7C1FCFC
:104E8000F1BD70B5144C2478002C01D0552070BDB4
:104E90004FF47A744FF46165C1EB0116B10005FB64
:104EA0000010101804FB03F1B1FBF4F104FB001037
:104EB000040C80B2FFF7C6FF002C0BD04FF400406B
:104EC000FFF7C0FF4FF40040FFF7BCFF641EA4B221
:104ED000002CF3D1002070BDAE3D0020D03D00205D
:104EE000B83D0020B23D0020002840F10880F44683
:104EF000404200F004F850F00040604700280AD01B
:104F0000B0FA80F18840D1F19D01C905020672F125
:104F1000004241EB10207047FF2212EAD05C1DBF17
:104F200012EAD153944593422BE09C44D30780EA84
:104F300001021A4043EA002043EA0121A1FB0030AC
:104F4000410038BF40007CF17F010BDBFE294ADACB
:104F50005B0842EAC15153EA006373F1004C51EB24
:104F600010207047D1F1080CDCF120012FDB5B0829
:104F700010FA01F10B4373F1004120FA0CF050419B
:104F8000704794451CBF02EAD153934280EA010264
:104F900002F000421DD0400019D0490017D05BB983
:104FA000634514D00902B1FA81F39940BCEB030CBC
:104FB000C00140F00040C1E70002B0FA80FC10FAE6
:104FC0000CF0B3EB0C0CC90141F00041B6E7100046
:104FD000704740000AD0490008D010F1807F94BF8C
:104FE00011F1807F02E042F0FF407047D0437047EC
:104FF000DFF8C826107051705078117848409070D2
:10500000032182E32DE9F04F8BB004208DF80800D6
:10501000DFF8A84602A904F10C0003F041FD207B53
:105020002178884240F00381A57BE17B8D420CBF53
:1050300001210021667B7040484000F0FC8016B9D9
:10504000002D00F0F480C6F3C300C01FFFF74CFF33
:1050500001464FF0804004F011FB0990DFF8601624
:105060004FF0804004F00AFB08904FF040414FF0B1
:10507000804004F003FB0790DFF848164FF08040B3
:1050800004F0FCFA0690DFF840164FF0804004F080
:10509000F5FA0590DFF834164FF0804004F0EEFA90
:1050A0000490DFF82C164FF0804004F0E7FA0390EC
:1050B000DFF820164FF0804004F0E0FA07464FF08A
:1050C00041414FF0804004F0D9FA8046DFF80816DD
:1050D0004FF0804004F0D2FA8146DFF800164FF01E
:1050E000804004F0CBFA8246DFF8F4154FF08040A0
:1050F00004F0C4FA8346F0094000C0F10100FFF754
:10510000F3FE0999FFF708FF0190C6F38000FFF74F
:10511000EBFE0899FFF700FF4FF07E5100F00AFB0D
:105120000090C6F34000FFF7DFFE0799FFF7F4FE9B
:105130000146009800F0FEFA009006F00100FFF72B
:10514000D3FE0699FFF7E8FE0146009800F0F2FA58
:105150000646E809FFF7D2FE0599FFF7DDFE014696
:10516000304600F0E7FA0646C5F38010FFF7BCFEB4
:105170000499FFF7D1FE0146304600F0DBFA0646FF
:10518000C5F34010FFF7B0FE0399FFF7C5FE0146D7
:10519000304600F0CFFA0646C5F30010FFF7A4FE34
:1051A00001463846FFF7B8FE0146304600F0C2FA25
:1051B0000646C5F3C000FFF797FE01464046FFF7DD
:1051C000ABFE0146304600F0B5FA0646C5F3800056
:1051D000FFF78AFE01464846FFF79EFE014630462D
:1051E00000F0A8FA0646C5F34000FFF77DFE014631
:1051F0005046FFF791FE0146304600F09BFA064606
:1052000005F00100FFF770FE01465846FFF784FEE7
:105210000146304600F08EFA01460198FFF77CFE09
:10522000A16921F08001A1610021E16004E0A06991
:1052300040F08000A06100200BB0BDE8F08F2DE9A8
:10524000F04F8BB004228DF80820DFF870442070F6
:105250006170607821784840A0700020E0700321E0
:10526000204603F003FC3223002200210846FFF70A
:1052700008FE02A904F10C0003F012FC207B217847
:10528000884240F0F080A57BE17B8D420CBF01217C
:105290000021667B7040484000F0EB8016B9002D7D
:1052A00000F0E380C6F3C300C01FFFF71DFE0146F8
:1052B0004FF0804004F0E2F90990DFF804144FF059
:1052C000804004F0DBF908904FF040414FF08040FF
:1052D00004F0D4F90790DFF8EC134FF0804004F0AD
:1052E000CDF90690DFF8E0134FF0804004F0C6F9E6
:1052F0000590DFF8D8134FF0804004F0BFF9049018
:10530000DFF8CC134FF0804004F0B8F90390DFF8D9
:10531000C4134FF0804004F0B1F907464FF041410B
:105320004FF0804004F0AAF98046EB494FF08040EE
:1053300004F0A4F98146E9494FF0804004F09EF959
:105340008246E7494FF0804004F098F98346F0091F
:105350004000C0F10100FFF7C7FD0999FFF7DCFD30
:105360000190C6F38000FFF7BFFD0899FFF7D4FD59
:105370004FF07E5100F0DEF90090C6F34000FFF7D9
:10538000B3FD0799FFF7C8FD009900F0D3F900902D
:1053900006F00100FFF7A8FD0699FFF7BDFD009993
:1053A00000F0C8F90646E809FFF7A8FD0599FFF7E0
:1053B000B3FD314600F0BEF90646C5F38010FFF795
:1053C00093FD0499FFF7A8FD314600F0B3F90646B6
:1053D000C5F34010FFF788FD0399FFF79DFD3146A7
:1053E00000F0A8F90646C5F30010FFF77DFD394629
:1053F000FFF792FD314600F09DF90646C5F3C00067
:10540000FFF772FD4146FFF787FD314600F092F944
:105410000646C5F38000FFF767FD4946FFF77CFDB0
:10542000314600F087F90646C5F34000FFF75CFD02
:105430005146FFF771FD314600F07CF9064605F054
:105440000100FFF751FD5946FFF766FD314600F0B8
:1054500071F90199FFF760FDA16921F08001A16157
:105460000021E16006E0FF2903D0A06940F0800040
:10547000A0610020E0E62DE9F04F8BB004228DF80A
:1054800008208E4C20706170607821784840A070B0
:105490000020E0700321204603F0E8FA32230022C6
:1054A00000210846FFF7EDFC02A904F10C0003F00F
:1054B000F7FA207B2178884240F0F780A57BE17BDA
:1054C0008D420CBF01210021667B7040484000F0F6
:1054D000F28016B9002D00F0EA80C6F3C300C01FA9
:1054E000FFF702FD01464FF0804004F0C7F8099035
:1054F00073494FF0804004F0C1F808904FF04041EC
:105500004FF0804004F0BAF807906E494FF08040A9
:1055100004F0B4F806906C494FF0804004F0AEF807
:1055200005906A494FF0804004F0A8F8049068495B
:105530004FF0804004F0A2F8039066494FF080409D
:1055400004F09CF807464FF041414FF0804004F0D2
:1055500095F8804660494FF0804004F08FF881460E
:105560005E494FF0804004F089F882465C494FF074
:10557000804004F083F88346F0094000C0F1010048
:10558000FFF7B2FC0999FFF7C7FC0190C6F3800052
:10559000FFF7AAFC0899FFF7BFFC4FF07E5100F01F
:1055A000C9F80090C6F34000FFF79EFC0799FFF78B
:1055B000B3FC009900F0BEF8009006F00100FFF780
:1055C00093FC0699FFF7A8FC009900F0B3F8064693
:1055D000E809FFF793FC0599FFF79EFC314600F0C0
:1055E000A9F80646C5F38010FFF77EFC0499FFF783
:1055F00093FC314600F09EF80646C5F34010FFF7D5
:1056000073FC0399FFF788FC314600F093F80646D7
:10561000C5F30010FFF768FC3946FFF77DFC314603
:1056200000F088F80646C5F3C000FFF75DFC414670
:10563000FFF772FC314600F07DF80646C5F38000A6
:10564000FFF752FC4946FFF767FC314600F072F85D
:105650000646C5F34000FFF747FC5146FFF75CFCE8
:10566000314600F067F8064605F00100FFF73CFC04
:105670005946FFF751FC314600F05CF80199FFF7FD
:105680004BFC0146A06920F08000A0610020E06092
:105690004FF0424000F04EF800F0E2FD114A124B8C
:1056A00000F01EFE02F04AFD06E0FF2903D0A069CB
:1056B00040F08000A0610020BEE50000888D002041
:1056C000000080BF000040C0000080C00000A0C0FB
:1056D0000000C0C00000E0C0000010C1000020C1F8
:1056E000000030C1CDCCCCCCCCCCFC3F004A01E09A
:1056F000888D00201070080A5070917010785178D1
:10570000484091784840D0700421104603F0AEB96B
:105710004FF0807C1CEB400F94BF1CEB410F05E069
:1057200040EA010C5FEA4C0C01D28142704718BF7D
:105730008842704790EA010F44BF81F0004100F0B9
:10574000E4B8421A3CBF801A89184FF0004CC0F3ED
:10575000C752FF2A24D0C1F3C75313B3D21AD2F1D0
:10576000190327DD4CEA01214CFA03F321EA030374
:10577000D140C20D4CEA0020401834BF20EA0C0092
:105780004CEA5000D20553EA006373EB0C0C52EB69
:105790001020420012F1807F38BF7047C00DC00555
:1057A0007047490212BF9A4200EB5120F8E7D2F14C
:1057B0001703D9D5704701004FF0807C1CEB400FD8
:1057C00094BF1CEB410F05E040EA010C5FEA4C0C72
:1057D00001D28842704718BF8142704710B5FF233D
:1057E00013EAD0541DBF13EAD1529C429A4239E0C9
:1057F000A41ADA0780EA0103134042EA012142EACF
:105800000020421A3CBF641E01EB4202090AB2FBAF
:10581000F1FE01FB1E221202B2FBF1F001FB10228D
:105820006EF30F201202B2FBF1FE4EEA00207F342D
:1058300006DDFE2C24DA53EA500050EBC45010BDB4
:10584000D4F1020401FB1E2240F08071192C1DDCF2
:1058500021FA04F0C4F12004A140114371F1004287
:10586000584110BD9C421ABF03EAD1529A420FE040
:1058700080EA010E0EF00043400004D0490016D12A
:1058800043F0FF4010BD490008BFD343180010BDCE
:105890009C4205D1D21AF7D001F00041484010BD1A
:1058A0004A0212BF0846484000F0004010BD4AB905
:1058B0000902B1FA81F2914044B1A418C00140F04C
:1058C00000409EE7C90141F0004152420002B0FA97
:1058D00080F4A040141B94E740000DD2010E7F39E4
:1058E0000AD4D1F11F0104D4C00140F00040C840E7
:1058F00070477FF0000070470020704790EA010F6A
:1059000044BF81F00041FFF71CBF431A4FF0004233
:105910003EBF5340C01AC918D3095FEAD05C13EBED
:10592000400F34BFB3EB410F40E07CEBD1530CD3BD
:1059300042EA012122D8D1EB402009D3400A28BFF6
:105940005FEA500140EBCC507047401A15D040023E
:10595000B0FA80F2521C9040400A4FEA3C23B3EB6D
:10596000026384BF00EB730007E040F400001A16E6
:10597000DB07C2F10102D04018437047182BFCDC52
:1059800031FA03F202FA03F3591A38BF42F0010266
:10599000D2EB40203CBF4000ACF1010C5FEACC5C94
:1059A000C20572F100414CEB5020704713EB400FE1
:1059B0000FD24B0009D0ACEBD153022B03DB4902D1
:1059C000172BDDDD70479143401A4300D5D10020ED
:1059D000704713EB410FD0D36FF0000070476400A5
:1059E000DFF8D826107051705078117848409070C8
:1059F00003218CE32DE9F04F8BB004208DF80800D3
:105A0000DFF8B84602A904F10C0003F09BF8207BF4
:105A10002178884240F00581A57BE17B8D420CBF57
:105A200001210021667B7040484000F0008116B9DA
:105A3000002D00F0F680C6F3C300C01FFFF754FA34
:105A400001464FF0804003F019FE0990DFF8701610
:105A50004FF0804003F012FE08904FF040414FF0AD
:105A6000804003F00BFE0790DFF858164FF080409F
:105A700003F004FE0690DFF850164FF0804003F06C
:105A8000FDFD0590DFF844164FF0804003F0F6FD71
:105A90000490DFF83C164FF0804003F0EFFD0390D8
:105AA000DFF830164FF0804003F0E8FD07464FF076
:105AB00041414FF0804003F0E1FD8046DFF81816C9
:105AC0004FF0804003F0DAFD8146DFF810164FF00A
:105AD000804003F0D3FD8246DFF804164FF080408B
