:020000040800F2
:1000000068A10020F7D90008A5D90008A7D90008E1
:10001000A9D90008ABD90008ADD90008000000003C
:100020000000000000000000000000001DDA0008D1
:10003000AFD90008000000005B260008753D0008ED
:100040002DDA000831DA000835DA0008B3D90008E3
:100050003DDA000841DA000845DA000849DA00080C
:100060004DDA000851DA000855DA000859DA0008BC
:100070005DDA000861DA000865DA000869DA00086C
:100080006DDA000871DA000875DA000879DA00081C
:100090007DDA000881DA000885DA0008B95C00081A
:1000A0008DDA000891DA000895DA000899DA00087C
:1000B0009DDA0008A1DA0008A5DA0008A9DA00082C
:1000C000ADDA0008B1DA0008B5DA0008B9DA0008DC
:1000D000BDDA0008510100083D740008A98100083C
:1000E000CDDA0008D1DA0008D5DA000800000000F7
:1000F0000000000000000000000000000000000000
:100100000000000000000000D9DA0008DDDA000875
:1001100077950008DB950008E9DA0008EDDA0008B9
:10012000F1DA0008F5DA0008F9DA0008FDDA00086B
:1001300001DB000851D80008B1D900080DDB000828
:1001400011DB000815DB000819DB00081DDB0008C7
:1001500010B5DFF8A44940F22551204601F012FA0B
:1001600050B1204601F003FADFF890194A6E402A98
:1001700002D25054501C486610BD70B504460D465E
:10018000DFF8746965B14021304601F0F4F90028C8
:10019000F9D014F8011B304601F0E5F96D1EF2D1DB
:1001A0004021304601F0E7F90028F9D0DFF84C098A
:1001B0000021416670BDF8B506460C46DFF83C5993
:1001C00095F86470002020700A230022014601F097
:1001D00030FA686E87420BD157B1284610F8011BE0
:1001E00006F8011B7F1EF9D1686E2070002068663A
:1001F000F1BD70B4FF22FF2369B1DFF804490FF6A7
:100200002C15491E10F8016B5E40735D5340325D42
:1002100089B20029F5D142EA032080B270BC704750
:10022000F8B5DFF8E0088178C27802EB01210279A5
:10023000407900EB02204004000C0022DFF8C8489F
:10024000012815DB04F2030340F6FF75DFF8BC68F4
:1002500089B205EA010736F817704FEA172C03F840
:1002600001CB03F8017B921C92B2491C8242EFDB66
:10027000DFF89C582978217003212CE0F8B5DFF8CD
:1002800084088178C27802EB01210279407900EB81
:1002900002204004000C0022DFF86C48012815DB26
:1002A00004F2030340F6FF75DFF8606889B205EADF
:1002B000010736F817704FEA172C03F801CB03F843
:1002C000017B921C92B2491C8242EFDBDFF840585E
:1002D0002978217004216170A070C61CB6B2314625
:1002E0002046FFF786FF02123255711C89B208556D
:1002F000481C68700026C0B201280CDB14F8010B02
:100300008DF80000012100A8FFF737FF761CB6B278
:1003100068788642F2DBF1BDF8B5DFF8E80781784E
:10032000C27842EA01240179407940EA012739463E
:100330002005000D00F0FAFCDFF8CC57DFF8D0679D
:100340003078287006206870200AA870EC70380A8F
:1003500028716F7106212846FFF74BFF0112A97122
:10036000E87108207070002415F8010B8DF800006A
:10037000012100A8FFF701FF641C7078A4B2844239
:10038000F2D3F1BD70B582B0DFF878078178C2781A
:1003900042EA01240179407940EA012631462005EC
:1003A000000D00F0C3FCDFF8605701202870052025
:1003B0006870200AA870EC70300A28716E710621EE
:1003C0002846FFF716FF0112A971E871DFF84047D0
:1003D00008206070002615F8010B8DF8000001213F
:1003E00000A8FFF7CAFE761C6078B6B28642F2D348
:1003F00073BDF8B5DFF80C078178C27802EB0121F4
:100400000279407900EB02204004000C0022DFF862
:10041000F846012815DB04F2030340F6FF75DFF808
:10042000EC6689B205EA010736F817704FEA172C17
:1004300003F801CB03F8017B921C92B2491C824263
:10044000EFDB0121217007216170A070C51CADB2E6
:1004500029462046FFF7CDFE02122A55691C89B2B3
:100460000855481CDFF8A85643E72DE9F04182B053
:10047000DFF890068178C27802EB012426464579A0
:100480000027012D11DB00F2070898F8000098F80A
:10049000011001EB002189B2B0B200F047FC7F1CD3
:1004A000761C08F10208AF42EFDBDFF85C66DFF88C
:1004B00060763878307010207070A4B2200AB07066
:1004C000F47028123071757106213046FFF791FEE5
:1004D0000112B171F07108207870002416F8010B38
:1004E0008DF80000012100A8FFF747FE641CA4B2AC
:1004F00078788442F2DBBDE8F381F0B589B01E2044
:100500008DF80800DFF8FC4502A92046FFF753FEEE
:100510009DF808000828C0F0A780607803280BD059
:10052000042821D0052876D0062835D0072800F0E9
:100530008780102848D097E000208DF808002078A8
:10054000DFF8CC150978884240F0D3820621204696
:10055000FFF74FFEE179A27901EB0221884240F0DA
:10056000C882FFF75DFE7FE000208DF8080020784C
:10057000DFF89C150978884240F0BB8206212046AE
:10058000FFF737FEE179A27901EB0221884240F0C2
:10059000B082FFF773FE67E000208DF80800207836
:1005A000DFF86C150978884240F0A38206212046C6
:1005B000FFF71FFEE179A27901EB0221884240F0AA
:1005C0009882FFF7A9FE4FE02078DFF844150978FC
:1005D000884240F08E829DF808002179627902EB12
:1005E00001214900093189B2884240F08282811E8E
:1005F00089B22046FFF7FDFD9DF80810091911F892
:10060000022C11F8011C01EB0221884240F071829A
:10061000FFF72BFF6DE200208DF8080020780128FD
:1006200040F0678206212046FFF7E3FDE179A279D9
:1006300001EB0221884240F05C82FFF7A3FE13E049
:1006400000208DF808002078012840F05282062111
:100650002046FFF7CEFDE179A27901EB0221884225
:1006600040F04782FFF7C5FE9DF80800062840F0DD
:10067000438100208DF808002078012867D1207977
:10068000E178A3786278DFF88054667983EA02071C
:100690004F40474087F00107BE4245D1019000918D
:1006A0000FF27C41DFF86C0400F0F6FF61784FF444
:1006B0008C7001F030F8012300220021084600F080
:1006C000B8FFA17840F2191001F025F801230022AB
:1006D0001146084600F0ADFFE1784FF4907001F04C
:1006E0001AF8012300221146084600F0A2FF2179E2
:1006F00040F2211001F00FF80123002211460846B4
:1007000000F097FF792028707520687079208DF8A7
:100710000000012100A8FFF730FD68788DF81D006A
:1007200001210DF11D0010E0692028708220687001
:1007300069208DF8010001210DF10100FFF71DFD79
:1007400068788DF80000012100A8FFF716FD2078D9
:10075000022866D12079E178A3786278DFF8A8537F
:10076000667983EA02074F40474087F00207BE429E
:1007700044D1019000910FF2A831DFF89C0300F002
:100780008BFF61784FF4917000F0C5FF01230022C8
:100790000021084600F04DFFA17840F2231000F040
:1007A000BAFF012300221146084600F042FFE1781B
:1007B0004FF4927000F0AFFF01230022114608466B
:1007C00000F037FF217940F2251000F0A4FF01234B
:1007D00000221146084600F02CFF79202870752071
:1007E000687079208DF80000012100A8FFF7C5FC92
:1007F00068788DF81C00012107A810E06920287096
:100800008220687069208DF80000012100A8FFF7A0
:10081000B4FC68788DF81B0001210DF11B00FFF777
:10082000ACFC2078032867D12079E178A37862783E
:10083000DFF8D452667983EA02074F40474087F0D9
:100840000307BE4245D1019000910FF2D421DFF899
:10085000CC0200F021FF61784FF4937000F05BFF51
:10086000012300220021084600F0E3FEA17840F2B7
:10087000271000F050FF012300221146084600F027
:10088000D8FEE1784FF4947000F045FF0123002278
:100890001146084600F0CDFE217940F2291000F003
:1008A0003AFF012300221146084600F0C2FE7920DB
:1008B00028707520687079208DF80000012100A84B
:1008C000FFF75BFC68788DF81A0001210DF11A0022
:1008D00010E0692028708220687069208DF800007F
:1008E000012100A8FFF749FC68788DF81900012163
:1008F0000DF11900FFF741FC9DF80800012840F0B8
:10090000F88000208DF808002078042845D1DFF811
:10091000F8512870606A010E6970A0EB0162130C37
:10092000AB70AB78A2EB0342120AEA70287183EA3B
:100930000100E97848402979484080F00400687156
:1009400004208DF80000012100A8FFF716FC68784C
:100950008DF81800012106A8FFF70FFCA8788DF884
:10096000170001210DF11700FFF707FCE8788DF85B
:10097000160001210DF11600FFF7FFFB28798DF815
:10098000150001210DF11500FFF7F7FB68798DF8CF
:100990001400012105A8FFF7F0FB2078052846D1B7
:1009A000DFF864512870A06A010E6970A0EB016243
:1009B000130CAB70AB78A2EB0342120AEA702871F9
:1009C00083EA0100E97848402979484080F0050031
:1009D000687105208DF80000012100A8FFF7CDFB0C
:1009E00068788DF8130001210DF11300FFF7C5FBA6
:1009F000A8788DF8120001210DF11200FFF7BDFB60
:100A0000E8788DF8110001210DF11100FFF7B5FB19
:100A100028798DF81000012104A8FFF7AEFB687952
:100A20008DF80F0001210DF10F00FFF7A6FB2078D4
:100A3000062846D1DFF8D0502870E06A010E6970B0
:100A4000A0EB0162130CAB70AB78A2EB0342120A6D
:100A5000EA70287183EA0100E97848402979484022
:100A600080F00600687106208DF80000012100A8C2
:100A7000FFF783FB68788DF80E0001210DF10E0061
:100A8000FFF77BFBA8788DF80D0001210DF10D001B
:100A9000FFF773FBE8788DF80C00012103A8FFF73E
:100AA0006CFB28798DF80B0001210DF10B00FFF78D
:100AB00064FB68798DF80A0001210DF10A00FFF747
:100AC0005CFB2078072814D1DFF83C50287094F89C
:100AD0002000687007208DF80000012100A8FFF7B2
:100AE0004CFB68788DF8090001210DF10900FFF732
:100AF00044FB09B0F0BD000000380140288C002004
:100B00002C0C0008F88D0020F48700208C56002063
:100B1000D80100208001002094010020A8010020BD
:100B200025642E25642E25642E25640000C1814095
:100B300001C0804101C0804100C1814001C08041AD
:100B400000C1814000C1814001C0804101C080419D
:100B500000C1814000C1814001C0804100C181408D
:100B600001C0804101C0804100C1814001C080417D
:100B700000C1814000C1814001C0804100C181406D
:100B800001C0804101C0804100C1814000C181405D
:100B900001C0804101C0804100C1814001C080414D
:100BA00000C1814000C1814001C0804101C080413D
:100BB00000C1814000C1814001C0804100C181402D
:100BC00001C0804101C0804100C1814000C181401D
:100BD00001C0804101C0804100C1814001C080410D
:100BE00000C1814000C1814001C0804100C18140FD
:100BF00001C0804101C0804100C1814001C08041ED
:100C000000C1814000C1814001C0804101C08041DC
:100C100000C1814000C1814001C0804100C18140CC
:100C200001C0804101C0804100C1814000C0C101BC
:100C3000C30302C2C60607C705C5C404CC0C0DCD4C
:100C40000FCFCE0E0ACACB0BC90908C8D81819D9BC
:100C50001BDBDA1A1EDEDF1FDD1D1CDC14D4D515EC
:100C6000D71716D6D21213D311D1D010F03031F1DC
:100C700033F3F23236F6F737F53534F43CFCFD3D0C
:100C8000FF3F3EFEFA3A3BFB39F9F83828E8E929FC
:100C9000EB2B2AEAEE2E2FEF2DEDEC2CE42425E5AC
:100CA00027E7E62622E2E323E12120E0A06061A11C
:100CB00063A3A26266A6A767A56564A46CACAD6DCC
:100CC000AF6F6EAEAA6A6BAB69A9A86878B8B9793C
:100CD000BB7B7ABABE7E7FBF7DBDBC7CB47475B56C
:100CE00077B7B67672B2B373B17170B0509091515C
:100CF0009353529296565797559594549C5C5D9D8C
:100D00005F9F9E5E5A9A9B5B99595898884849897B
:100D10004B8B8A4A4E8E8F4F8D4D4C8C448485452B
:100D2000874746868242438341818040F0B583B045
:100D30000005000D40F65432801A00F0C180401EBC
:100D400000F0C880401E00F0CE80401E00F0D4802D
:100D5000801E00F0DA80401E00F0E080401E00F0AF
:100D60000281401E00F00881401E00F02A81401ED2
:100D700000F03081401E00F03681401E00F03C81C2
:100D8000401E00F04281401E00F04881401E00F0ED
:100D90004E81401E00F05481401F00F05A81401ED9
:100DA00000F06081401E00F08B81401E00F09181B8
:100DB000401E00F06081401E00F06681401E00F081
:100DC0006E81401E00F07381401E00F08B81401E3A
:100DD00000F09181401E00F0B681401E00F0BB8102
:100DE000401E00F0DF81401E00F0E481401E00F054
:100DF000E981401E00F0EE81401E00F0F381401EAC
:100E000000F0F881401E00F0FD81401E00F00282DB
:100E1000401F00F00782401E00F00C82401E00F0D0
:100E20001182401E00F01682401E00F01B82401E00
:100E300000F02082401E00F02582401E00F0248237
:100E4000093800F02982401E00F02C82401E00F07C
:100E50003182401E00F03682401E00F03A82401E71
:100E600000F03F82401E00F04482401E00F04982A4
:100E7000401E00F04E82401E00F05382401E00F0E3
:100E80005882401E00F05D82401E00F06282401ECB
:100E900000F06882401E00F06E82401E00F07482F6
:100EA000401E00F07A82401E00F07982401E00F061
:100EB0007E82401E00F08182401E00F0A782D6E2B2
:100EC00041F2A866DFF8AC4531530222002000F061
:100ED00040FCCCE241F2A866DFF8984535196980FC
:100EE00002220220F3E741F2A866DFF888453519AF
:100EF000A98002220820EAE741F2A866DFF87445DB
:100F00003519E98002220A20E1E741F2A866DFF8FC
:100F100064453519698102221A20D8E741F2A86692
:100F2000DFF850453519A98102221C2000F011FC80
:100F30006889ADF80200A889ADF80000A88801F022
:100F400035FA009901F040FA0746305B01F02EFABD
:100F5000394601F039FA0190BDF806006884BDF801
:100F60000400A88483E241F2A866DFF80845351939
:100F7000E98102221E20AAE741F2A866DFF8F444C4
:100F8000351929820222202000F0E3FBE889ADF820
:100F90000200288AADF80000A88801F007FA00993D
:100FA00001F012FA0746305B01F000FA394601F011
:100FB0000BFA0190BDF80600E884BDF8040028850E
:100FC00055E241F2A866DFF8AC4435196982022285
:100FD00022207CE741F2A866DFF898443519A982FF
:100FE0000222242073E741F2A866DFF8884435190D
:100FF000E982022226206AE741F2A866DFF87444FB
:10100000351929830222282061E741F2A866DFF81A
:1010100064443519698302222A2058E741F2A86600
:10102000DFF850443519A98302222C204FE741F202
:10103000A866DFF840443519E98302222E2046E7EE
:1010400041F2A866DFF82C443519298402223020A9
:101050003DE741F2A866DFF81C4435196985022294
:101060003A2034E741F2A866DFF808443519A9852B
:1010700002223C202BE741F2A866DFF8F84335193D
:1010800069860222422022E741F2A866DFF8E443A3
:101090003519A9860222442000F05BFBE7E1DFF866
:1010A000D803C186DFF8D40301210170DFE141F2EA
:1010B000A866DFF8C043351929870222482006E7D1
:1010C00041F2A866DFF8AC433519E98502223E20DB
:1010D000FDE641F2A866DFF89C4335192986022215
:1010E0004020F4E641F2A866DFF8884335196987A5
:1010F00002224A20EBE641F2A866DFF87843351970
:10110000A98702224C2000F024FB41F2E86637193F
:10111000788AADF80200B88AADF80000E88801F0DE
:1011200045F9009901F050F90446688801F03EF94C
:10113000214601F049F90190BDF806007882BDF81A
:101140000400B88293E141F2A866CA4C3519E987D8
:1011500002224E20BBE641F2E866C64C3153022221
:10116000502000F0F6FA3719F88AADF80200388BF3
:10117000ADF8000041F2A8663519E88801F016F9CB
:10118000009901F021F90446688801F00FF9214621
:1011900001F01AF90190BDF80600F882BDF80400CC
:1011A000388364E141F2E866B24C37197980022253
:1011B00052208CE641F2E866AE4C3719B980022223
:1011C000542084E641F2E866AA4C3719F9800222DD
:1011D00056207CE641F2E866A64C37193981022296
:1011E000582074E641F2E866A24C37197981022250
:1011F0005A206CE641F2E8669E4C3719B98102220A
:101200005C2064E641F2E8669A4C3719F9810222C3
:101210005E205CE641F2E866964C3719398202227C
:10122000602039E741F2E866924C3719798302224F
:101230006A204CE641F2E8668E4C3719B9830222E7
:101240006C2044E641F2E8668A4C3719F9830222A1
:101250006E203CE641F2E866864C3719398402225A
:10126000702034E641F2E866824C37197984022214
:1012700072202CE641F2E8667E4C3719B9840222CE
:10128000742024E67E480FE741F2E866794C37196E
:101290003985022278201AE6002140F22B1000F056
:1012A0003AFAE4E041F2E866724C3719B987022253
:1012B000DA200CE641F2E8666E4C3719F987022213
:1012C000DC2004E641F228706A4C01530222DE2041
:1012D000FDE541F22870674C001941800222E420AC
:1012E000F5E541F22870634C001981800222E62066
:1012F000EDE541F228705F4C0019C1800222E82020
:10130000E5E541F228705B4C001901810222EA20D8
:10131000DDE541F22870574C001941810222EC2092
:10132000BAE641F22870534C001981810222EE2066
:10133000CDE541F228704F4C0019C1810222F02006
:10134000C5E541F228704B4C001901820222F220BF
:10135000BDE541F22870474C0019418202224FF44A
:101360008270B4E541F22870424C00198182022259
:101370004FF48370ABE541F228703E4C0019C182F6
:1013800002224FF48470A2E541F22870394C001912
:10139000018302224FF4857099E53A4884E63A4881
:1013A0000122027001F11700384908705FE03848E7
:1013B0000122027001F12F00F6E78C000021A4F653
:1013C000786080B200F0A7F90123002200210846CE
:1013D00000F02FF90021A4F6776080B200F09BF9AD
:1013E000012300221146084600F023F90021A4F64B
:1013F000766080B200F08FF9012300221146084682
:1014000000F017F90021A4F6756027E08C00002198
:101410002048001980B200F07EF90123002200214B
:10142000084600F006F900211B48001980B200F0C0
:1014300072F9012300221146084600F0FAF8002153
:101440001648001980B200F066F901230022114607
:10145000084600F0EEF800211148001980B200F0B3
:101460005AF9012300220021084600F0E2F800208A
:1014700003B0F0BD8C560020346D0020C46E0020F7
:10148000C66E0020F68D0020C96E0020C86E0020B8
:10149000CA6E0020E8E3FFFFE9E3FFFFEAE3FFFF96
:1014A000EBE3FFFF30B585B004460D46208A4CF6CD
:1014B000FF710840E98808432082A0894EF6F311A5
:1014C0000840A98808432989084369890843A081FD
:1014D000A08A4FF6FF410840A9890843A08200A8CE
:1014E00000F0FCFF0D4884420CBF039802981921BC
:1014F000484329688900B0FBF1F06421B0FBF1F2A8
:101500001201130901FB130000013230B0FBF1F0AE
:1015100000F00F001043208105B030BD00380140BD
:101520000029818912BF41F400514DF6FF7211402C
:101530008181704710B40B065B0F012401F01F017D
:1015400004FA01F1012B08BF0C3003D0022B0CBFB1
:1015500010301430002A026814BF114322EA01013E
:10156000016010BC7047C905C90D81807047808833
:10157000C005C00D704700880140481E8041C0432F
:10158000C00F704710B40A06520F012301F01F0468
:1015900003FA04F4012A08BF828903D0022A0CBF8F
:1015A000028A828A2240090A03FA01F1008808406F
:1015B00022B1401E8041C043C00F00E0002010BC9B
:1015C00070470122090A02FA01F189B2C943018078
:1015D000704750F8041B61B150F8042BD30744BF87
:1015E000A9F101039A18002342F8043B091FFAD11C
:1015F000EFE77047F8B5044623480078C0B9BCB19E
:1016000001F00EF82149096801F22E029379204D6C
:101610005E5DD779BE435E5505D11E4B1D78127AAB
:1016200025EA02021A70CC8500F0FEFF01F0EFF906
:10163000F1BD70B5144C2478002C01D0552070BD3C
:101640004FF47A744FF46165C1EB0116B10005FBEC
:101650000010101804FB03F1B1FBF4F104FB0010BF
:10166000040C80B2FFF7C6FF002C0BD04FF40040F3
:10167000FFF7C0FF4FF40040FFF7BCFF641EA4B2A9
:10168000002CF3D1002070BDEE3D0020103E002064
:10169000F83D0020F23D00200CB41CB5044604A81F
:1016A0000190009401AB0A4600A90748784418301D
:1016B00001F04EFB009900220A7000285CBF0098E0
:1016C000001B16BC5DF80CFB9F230000400001D0FE
:1016D000401EFDD1704710B5044602F0E2F9200A21
:1016E0004000A030C0B202F078FA02F017FAE0B27F
:1016F00002F073FA02F012FA02F0D3F9A12002F01C
:101700006CFA02F00BFA002002F097FA044602F09D
:10171000E3F9204610BD38B504460D4602F0C1F984
:10172000200A4000A030C0B202F057FA02F0F6F9E9
:10173000E0B202F052FA02F0F1F9284602F04DFA56
:1017400002F0ECF902F0C8F942F21070BDE8324044
:10175000BCE72DE9F04104468846164600275EB1F5
:10176000002528FA05F1C9B2381980B2FFF7D3FF76
:101770007F1C0835B742F4DBBDE8F08170B50C463C
:1017800000254CB12018461EB0B2FFF7A4FF00EBB5
:101790000525761E641EF7D1284670BD10B540F2AF
:1017A0002B142046FFF797FF552801D1002010BDCC
:1017B00000F0BFFA55212046FFF7ADFF01230022BC
:1017C00000210846FFF735FF2046FFF784FF044657
:1017D0000123002211460846FFF72BFF552CE5D0C8
:1017E000012010BD70B541F2A865DFF81C4B022145
:1017F0000020FFF7C3FF28530123002200210846E1
:10180000FFF717FF2D1902210846FFF7B7FF688081
:101810000123002211460846FFF70BFF0221082092
:10182000FFF7ACFFA8800123002211460846FFF70E
:1018300000FF02210A20FFF7A1FFE8800123002218
:1018400011460846FFF7F5FE02211A20FFF796FF22
:1018500068810123002211460846FFF7EAFE0221B3
:101860001C20FFF78BFFA8810123002211460846A8
:10187000FFF7DFFE02211E20FFF780FFE881012332
:10188000002211460846FFF7D4FE02212020FFF770
:1018900075FF28820123002211460846FFF7C9FE82
:1018A00002212220FFF76AFF6882012300221146ED
:1018B0000846FFF7BEFE02212420FFF75FFFA88243
:1018C0000123002211460846FFF7B3FE022126201D
:1018D000FFF754FFE8820123002211460846FFF774
:1018E000A8FE02212820FFF749FF288301230022B8
:1018F00011460846FFF79DFE02212A20FFF73EFF12
:1019000068830123002211460846FFF792FE022158
:101910002C20FFF733FFA88301230022114608463D
:10192000FFF787FE02212E20FFF728FFE88301231F
:10193000002211460846FFF77CFE02213020FFF707
:101940001DFF28840123002211460846FFF771FE7F
:1019500002213A20FFF712FF688501230022114679
:101960000846FFF766FE02213C20FFF707FFA88527
:101970000123002211460846FFF75BFE02213E20AC
:10198000FFF7FCFEE8850123002211460846FFF719
:1019900050FE02214020FFF7F1FE2886012300229D
:1019A00011460846FFF745FE02214220FFF7E6FEFA
:1019B00068860123002211460846FFF73AFE0221FD
:1019C0003B20FFF7DBFEA8860123002211460846D4
:1019D000FFF72FFE0020E886012302460146FFF7AD
:1019E00028FE02214820FFF7C9FE28870123002294
:1019F00011460846FFF71DFE02214A20FFF7BEFEF2
:101A000068870123002211460846FFF712FE0221D3
:101A10004C20FFF7B3FEA887012300221146084699
:101A2000FFF707FE02214E20FFF7A8FEE8870123FB
:101A3000002211460846FFF7FCFD41F2E86502214D
:101A40005020FFF79BFE2853012300221146084631
:101A5000FFF7EFFD2D1902215220FFF78FFE68805E
:101A60000123002211460846FFF7E3FD022154201E
:101A7000FFF784FEA8800123002211460846FFF7E5
:101A8000D8FD02215620FFF779FEE88001230022CD
:101A900011460846FFF7CDFD02215820FFF76EFEE4
:101AA00028810123002211460846FFF7C2FD0221CA
:101AB0005A20FFF763FE6881012300221146084681
:101AC000FFF7B7FD02215C20FFF758FEA881012334
:101AD000002211460846FFF7ACFD02215E20FFF709
:101AE0004DFEE8810123002211460846FFF7A1FDC3
:101AF00002216020FFF742FE2882012300221146C6
:101B00000846FFF796FD02216A20FFF737FE68833B
:101B10000123002211460846FFF78BFD02216C20AD
:101B2000FFF72CFEA8830123002211460846FFF789
:101B300080FD02216E20FFF721FEE88301230022B1
:101B400011460846FFF775FD02217020FFF716FECB
:101B500028840123002211460846FFF76AFD02216E
:101B60007220FFF70BFE688401230022114608460D
:101B7000FFF75FFD02217420FFF700FEA884012318
:101B8000002211460846FFF754FD02217820FFF796
:101B9000F5FD28850123002211460846FFF749FD7F
:101BA0000020E8840221DA20FFF7E8FDA88701235E
:101BB000002211460846FFF73CFD0020E88701237C
:101BC00002460146FFF735FD41F2287500202853F3
:101BD000012302460146FFF72CFD2D190221E420C6
:101BE000FFF7CCFD68800123002211460846FFF76D
:101BF00020FD0221E620FFF7C1FDA880012300227D
:101C000011460846FFF715FD0221E820FFF7B6FD53
:101C1000E8800123002211460846FFF70AFD022151
:101C2000EA20FFF7ABFD2881012300221146084678
:101C3000FFF7FFFC0221EC20FFF7A0FD68810123E4
:101C4000002211460846FFF7F4FC0221EE20FFF7C0
:101C500095FDA8810123002211460846FFF7E9FC03
:101C60000221F020FFF78AFDE881012300221146BE
:101C70000846FFF7DEFC0221F220FFF77FFD2882F5
:101C80000123002211460846FFF7D3FC02214FF43E
:101C90008270FFF773FD6882012300221146084617
:101CA000FFF7C7FC02214FF48370FFF767FDA8829E
:101CB0000123002211460846FFF7BBFC02214FF426
:101CC0008470FFF75BFDE88201230022114608467D
:101CD000FFF7AFFC02214FF48570FFF74FFD28831B
:101CE0000123002211460846FFF7A3FC4FF4967526
:101CF00004F580544FF480760221A8B2FFF73EFD30
:101D000024F8020B0123002200210846FFF791FC72
:101D10000221A81C80B2FFF731FD24F8020B012339
:101D2000002211460846FFF784FC2D1D761EE3D1E4
:101D300070BD2DE9F84F41F2A865DFF8CC450620CB
:101D40002853022206210020FFF703FD2D1906204B
:101D50006880022201461046FFF7FBFC0020A880A5
:101D6000022201460820FFF7F4FC0020E88002224E
:101D700001460A20FFF7EDFCDFF890050090BDF862
:101D80000210698102221A20FFF7E3FCBDF800006F
:101D9000A881022201461C20FFF7DBFCDFF870055A
:101DA0000090BDF80210E98102221E20FFF7D1FC4D
:101DB000BDF800002882022201462020FFF7C9FC5E
:101DC000DFF850650096BDF80210698202222220D9
:101DD000FFF7BFFCBDF80000A882022201462420C4
:101DE000FFF7B7FC002000900146E982022226207E
:101DF000FFF7AFFCBDF8000028830222014628202F
:101E0000FFF7A7FC4FF07F570097BDF802106983DA
:101E100002222A20FFF79DFCBDF80000A8830222C1
:101E200001462C20FFF795FCDFF8EC84CDF800800C
:101E3000BDF80210E98302222E20FFF78AFCBDF8CC
:101E400000002884022201463020FFF782FCDFF8E0
:101E5000CC94CDF80090BDF80210698502223A209A
:101E6000FFF777FCBDF80000A885022201463C2060
:101E7000FFF76FFCDFF8A8A4CDF800A0BDF80210B2
:101E8000E98502223E20FFF764FCBDF800002886A9
:101E9000022201464020FFF75CFCDFF888B4CDF851
:101EA00000B0BDF80210698602224220FFF751FC03
:101EB000BDF80000A886022201464420FFF749FC35
:101EC0000020E8862887022201464820FFF741FCCF
:101ED000DFF838040090BDF80210698702224A201A
:101EE000FFF737FCBDF80000A887022201464C200E
:101EF000FFF72FFCDFF818040090BDF80210E98707
:101F000002224E20FFF725FC41F2E865BDF80000F3
:101F10002853022201465020FFF71BFC0096BDF813
:101F200002102D19698002225220FFF712FCBDF821
:101F30000000A880022201465420FFF70AFC00207E
:101F400000900146E98002225620FFF702FCBDF80E
:101F500000002881022201465820FFF7FAFB009773
:101F6000BDF80210698102225A20FFF7F2FBBDF88A
:101F70000000A881022201465C20FFF7EAFBCDF8B1
:101F80000080BDF80210E98102225E20FFF7E1FB2C
:101F9000BDF800002882022201466020FFF7D9FB2D
:101FA000CDF80090BDF80210698302226A20FFF785
:101FB000D0FBBDF80000A883022201466C20FFF789
:101FC000C8FBCDF800A0BDF80210E98302226E2004
:101FD000FFF7BFFBBDF800002884022201467020F5
:101FE000FFF7B7FBCDF800B0BDF8021069840222FC
:101FF0007220FFF7AEFBBDF80000A8840222014664
:102000007420FFF7A6FB0020E88428850222014601
:102010007820FFF79EFB0020E88702220146DC20A3
:10202000FFF797FB41F22875002028530222014652
:10203000DE20FFF78EFB0020009006462C196680FC
:1020400002223146E420FFF784FBBDF80000A080A7
:10205000054602222946E620FFF77BFBE6800222A6
:102060003146E820FFF775FBBDF800002081022211
:102070002946EA20FFF76DFB668102223146EC20FB
:10208000FFF767FBBDF80000A08102222946EE2081
:10209000FFF75FFBE68102223146F020FFF759FB94
:1020A000BDF80000208202222946F220FFF751FBF2
:1020B0009D480090BDF802506582022229464FF4E7
:1020C0008270FFF746FBBDF80000A08206460222A0
:1020D00031464FF48370FFF73CFBE582022229462C
:1020E0004FF48470FFF735FBBDF800002083022217
:1020F00031464FF48570FFF72CFB4FF496744FF484
:1021000080750021A0B2FFF706FB01230022002109
:102110000846FFF78EFA0021601C80B2FFF7FBFA39
:102120000123002211460846FFF783FA0021A01C74
:1021300080B2FFF7F0FA0123002211460846FFF7AC
:1021400078FA0021E01C80B2FFF7E5FA01230022B3
:1021500011460846FFF76DFA241D6D1ED1D1BDE86A
:10216000F18F70B582B00446A50005F22C1602214D
:10217000B0B2FFF703FBADF80200012300220021FB
:102180000846FFF756FA05F597750221A8B2FFF742
:10219000F5FAADF800000123002211460846FFF7CA
:1021A00048FA0098002101F077FD05D25F4901F05F
:1021B00085FD01D2002076BD534800EB8404022245
:1021C000B4F80018B0B2FFF7C4FA012300220021CE
:1021D0000846FFF72EFA0222B4F80218A8B2FFF759
:1021E000B8FA0123002211460846FFF722FA02211D
:1021F000B0B2FFF7C3FAADF8020001230022114686
:102200000846FFF716FA0221A8B2FFF7B7FAADF8B1
:1022100000000123002211460846FFF70AFA009841
:10222000002101F039FD03D2404901F047FDC1D33F
:10223000012076BD70B582B00446A50005F22C36AB
:102240000221B0B2FFF79AFAADF802000123002292
:1022500000210846FFF7EDF905F22E350221A8B25C
:10226000FFF78CFAADF80000012300221146084662
:10227000FFF7DFF90098002101F00EFD05D22B4990
:1022800001F01CFD01D2002076BD1F4800EB840444
:102290000222B4F8001AB0B2FFF75BFA0123002261
:1022A00000210846FFF7C5F90222B4F8021AA8B2C5
:1022B000FFF74FFA0123002211460846FFF7B9F94C
:1022C0000221B0B2FFF75AFAADF802000123002252
:1022D00011460846FFF7ADF90221A8B2FFF74EFA02
:1022E000ADF800000123002211460846FFF7A1F9CE
:1022F0000098002101F0D0FC03D20C4901F0DEFC73
:10230000C1D3012076BD00008C5600200000204083
:102310000000E03F00003442CDCC4C3F0000A04222
:10232000000028439A99993E00005841E0EF7F430E
:1023300038B54FF496744FF480750021A0B2FFF7C2
:10234000EAF90123002200210846FFF772F9002173
:10235000601C80B2FFF7DFF9012300221146084616
:10236000FFF767F90021A01C80B2FFF7D4F9012321
:10237000002211460846FFF75CF90021E01C80B2FC
:10238000FFF7C9F90123002211460846FFF751F96A
:10239000241D6D1ED1D131BD002840F10880F446C6
:1023A000404200F004F850F00040604700280AD096
:1023B000B0FA80F18840D1F19D01C905020672F1A1
:1023C000004241EB10207047FF2212EAD05C1DBF93
:1023D00012EAD153944593422BE09C44D30780EA00
:1023E00001021A4043EA002043EA0121A1FB003028
:1023F000410038BF40007CF17F010BDBFE294ADA47
:102400005B0842EAC15153EA006373F1004C51EB9F
:1024100010207047D1F1080CDCF120012FDB5B08A4
:1024200010FA01F10B4373F1004120FA0CF0504116
:10243000704794451CBF02EAD153934280EA0102DF
:1024400002F000421DD0400019D0490017D05BB9FE
:10245000634514D00902B1FA81F39940BCEB030C37
:10246000C00140F00040C1E70002B0FA80FC10FA61
:102470000CF0B3EB0C0CC90141F00041B6E71000C1
:10248000704740000AD0490008D010F1807F94BF07
:1024900011F1807F02E042F0FF407047D043704767
:1024A00054490A68920850EA8200086070470A6836
:1024B00022F0F0021043086070474F4900220A7072
:1024C0000A70012802D0042801D105200870704745
:1024D00049490A68EEE749490860704770B44549C0
:1024E0000A6802F00C02042A03D0082A03D0444AE6
:1024F00028E0444A26E00A680B6803F48033C2F3FC
:1025000083420D2A14BF921C062213B93E4B5A4334
:1025100018E08C6A8B6A03F00F035B1C394DE403EF
:1025200058BFB5FBF3F30CD58C6A8E6AC4F3031461
:10253000641CB5FBF4F4C6F30325AD1C6C43B4FB7B
:10254000F3F35A4302600B68304A0468C3F3031381
:102550009B5C24FA03F343600B684468C3F30223D3
:102560009B5C24FA03F383600B684468C3F3C223C3
:102570009B5C24FA03F3C3600968C368C1F381312B
:102580008918097CB3FBF1F1016170BC7047204AE6
:102590000029116814BF084321EA00001060704749
:1025A0001C4A0029116814BF084321EA000010608A
:1025B000704719490860704741090D4A012908BF51
:1025C000116803D002290CBF116A516A012200F080
:1025D0001F0002FA00F00840401E05E00F480168A5
:1025E00041F08071016070478041C043C00F704767
:1025F0000010024004100240201002403C044242FD
:1026000000127A0040787D0100093D00BC010020E5
:10261000181002401C1002404004424224100240A4
:10262000EFF3108072B6704780F3108870471B4834
:10263000FF210170002080F30988194801210170F1
:1026400018481949016062B6FEE71648164901604C
:102650007047144814490160704772B6EFF309805F
:1026600028B1203880E8F00F10490968086000B5EB
:102670000F4880475DF804EB0E480F490A78027056
:102680000A480E490A680260106890E8F00F20308E
:1026900080F309884EF0040E62B6704722ED00E028
:1026A000F33D002004ED00E000000010103E00208B
:1026B000693D0008F03D0020F13D0020183E00205B
:1026C00030B587B001F00CFBDFF8544500206063A3
:1026D000A070E0702072E07120612062E061A06172
:1026E0006070A071042104F10C0001F06FFB002068
:1026F00020716071E062606241F2B8054FF4FD61E3
:10270000281900F07BF98021DFF8180500F076F930
:102710002819014641F21412121915234A613F2566
:1027200081F84C50002581F84D5001F25C0102F215
:102730005C025B1EF2D14D613F2281F84C2081F892
:102740004D502563A0624FF4486104F1380000F059
:1027500055F904F2380004F25801632200F8045BD2
:1027600040F80B1B3F2300F8013B00F8105B2031C1
:10277000521EF3D1057045603F21C173057404F208
:102780003800606101F026FB01F04AFB0320049051
:1027900003958020029004F6B86001904FF6FF7018
:1027A00000901F2341F2B40002190021DFF87804E1
:1027B00001F050FB0DF115020FF274411F2001F0E2
:1027C00096FB0320049003958020029004F6B84005
:1027D00001904FF6FE7000901E2304F6B462294665
:1027E000DFF8480401F036FB05AA0FF254411E2021
:1027F00001F07DFB01F075FA01F02EFC07B030BD51
:1028000038B5DFF81C44E079012820D1FFF708FF34
:102810000546A07808B1401EA070A078E178084372
:1028200012D100F014F96079217988420CD0DFF8D8
:10283000F41351F82000E062816B491C8163206928
:10284000401C2061FFF705FF2846FFF7EDFE31BD74
:1028500010B5DFF8CC43E07958B900F0F8F86079AA
:102860002071DFF8C01351F82000E0626062FFF7CA
:10287000DEFE10BD10B50220FEF7BCFEFFF7D0FE55
:10288000DFF89C4300212162FFF7CEFE6420FEF7B3
:10289000B1FEFFF7C5FE216AA16101216170BDE8AB
:1028A0001040FFF7C1BE38B501F062FAFFF7B8FE7D
:1028B000DFF86C43616B491C6163FFF7B5FEE0799B
:1028C000012839D1607A38B1022801D034D301E02F
:1028D000012000E000206072256B95F832001F286F
:1028E0002AD0FFF79DFE05F214014A8BEAB1521E71
:1028F0004A8392B2CAB90A7F37231A421DBF02F037
:10290000C8020A77012200224A77097F09070CD4FE
:1029100005F23401A2798B781A43A27195F834201C
:102920001219137B4978194311736D69FFF77CFE07
:1029300095F832001F28D4D131BDF8B504460FF206
:102940001035A07A405D0619F67A755D05EBC00575
:10295000EDB2DFF8D06256F8256006F21C074FF0A2
:10296000000CA7F812C0B960397D914339757B75A9
:10297000397D090709D4AA498A79BB7E1A438A712D
:102980004018017B7A7E114301732146304600F0E6
:1029900008F8796819B1304600F016F8F461284655
:1029A000F2BD10B490F83420521800F23400D37AFB
:1029B0004478A343D372D27A22B98A7A807822EA01
:1029C0000000887210BC704770B490F8342000F298
:1029D0003400837840780C68DB43C04364B1151938
:1029E000EE7A0640EE72ED7A15B9A57A1D40A57211
:1029F00051F8044F002CF2D170BC704731B1002265
:102A000000F8012B491E89B20029F8D1704738B56A
:102A1000FFF706FE0446824DA878E978084311D1F5
:102A200000F015F86879297988420BD07D4951F872
:102A30002000E862816B491C81632869401C286181
:102A4000FFF703FE2046BDE83240FFF7EDBD7448B6
:102A50000FF2FC118279525C13181B7B595C01EB5D
:102A6000C20141717047002204E011F8013B00F8F7
:102A7000013B521C0B78002BF7D100210170D0B222
:102A800070470021027822B1491C10F8012F002A5A
:102A9000FAD1C8B2704780B5FFF7C2FD60490A6A33
:102AA000521C0A62FFF7C0FD01F01EF9F4E710B5F1
:102AB0005B4C607828B9C820FEF79CFD6078002840
:102AC000F9D0A0696421B0FBF1F0A06118B92070C1
:102AD000FF2001F06DFAFFF7A3FD216AE1610021FB
:102AE0002162FFF7A1FDE069A169B0FBF1F0C0F13F
:102AF0006400207001F0FAF800F004F86420FEF79A
:102B000079FDE8E730B583B00024464D00A92046A2
:102B100001F01FFA50B9286840B1012806D0C168F9
:102B2000826802EB8101416401998164641C2D1D5E
:102B3000202CEBD303B030BD2DE9F24F82469046F6
:102B400099460A9DDDF82CB00C9CFFF769FD344EC8
:102B5000B76A002F5FD07969B162FFF765FD009811
:102B6000386087F832A0002087F8300087F83100FD
:102B7000F885C7F804B0FD60C7F808803C82A7F864
:102B8000129087F837004FEADA0087F834000AF02D
:102B9000070187F83310012202FA00F087F83600A7
:102BA00002FA01F087F835000020F8613862B86257
:102BB0007862B8633864F8637864B8643F2087F853
:102BC0004C00002087F84D00384601F0CFF8384619
:102BD00001F088F8FFF724FD124941F82A70316BA3
:102BE00079610021B961316B01B18F613763B179CE
:102BF00097F836201143B17197F8341089190A7B80
:102C000097F835301A430A73317A491C3172FFF74D
:102C10000BFD002002E0FFF707FD4220BDE8F28F28
:102C2000EC3D0020D88A0020972A0008AF2A00082F
:102C300075432F4F532D49492049646C65000000AE
:102C400075432F4F532D4949205374617400000080
:102C50000000010002000100030001000200010069
:102C60000400010002000100030001000200010055
:102C70000500010002000100030001000200010044
:102C80000400010002000100030001000200010035
:102C90000600010002000100030001000200010023
:102CA0000400010002000100030001000200010015
:102CB0000500010002000100030001000200010004
:102CC00004000100020001000300010002000100F5
:102CD00007000100020001000300010002000100E2
:102CE00004000100020001000300010002000100D5
:102CF00005000100020001000300010002000100C4
:102D000004000100020001000300010002000100B4
:102D100006000100020001000300010002000100A2
:102D20000400010002000100030001000200010094
:102D30000500010002000100030001000200010083
:102D40000400010002000100030001000200010074
:102D50002DE9F04FA1B017461C4601AD6860A9608F
:102D60000020E86211AE4FF00A096FF0004802E05F
:102D7000E86A401CE862387818B9E86A21B0BDE812
:102D8000F08F252807D100206861A861E8612862DA
:102D90006862A8620CE017F8011BA8686A6890478F
:102DA000A8600028E4D14FF0FF30E7E740F00100D1
:102DB00017F8011F2029F9D023290DD02B2904D081
:102DC0002D2906D030290AD00CE040F0020080B254
:102DD000EEE740F00400FAE740F00800F7E740F0C3
:102DE0001000F4E72A290DD12268111D2160116815
:102DF0006963002904D54942696340F0040080B248
:102E00007F1C10E00021696307E0696B414503D036
:102E100009FB0121303969637F1C3A78A2F1300146
:102E2000C9B20A29F1D339782E291CBF4FF0FF31DE
:102E300029631BD117F8011F2A2906D12268111D09
:102E40002160116829637F1C10E00021296307E0DD
:102E5000296B414503D009FB0121303929637F1CCF
:102E60003A78A2F13001C9B20A29F1D3288739781A
:102E70000FF6D83001F0F2F808B117F8010B8DF811
:102E80003E009DF83E00682804D1387868280AD1B1
:102E9000622005E06C2806D138786C2803D17120B7
:102EA0008DF83E007F1C11A828613A78104625381D
:102EB00025D01C3877D0001F022874D9133800F0B1
:102EC0009E8009386FD0801E00F03681401E00F0D1
:102ED000DF80401E022866D9001F00F0D980401F05
:102EE00036D0401E00F08B80401E23D0C01E0CD078
:102EF000801E00F08480C01E00F0818024E168699B
:102F0000411C69612521815528E12168081D206047
:102F10000868E8602A6B002A08D4002101F0AAF8AA
:102F200000281ABFE968401A286B01E001F0CEF8CA
:102F3000A86113E12168081D206008680021CDE91F
:102F4000000111A8E860782100A800F097F905E1D8
:102F50009DF83E0062281FD068280DD06A2812D044
:102F60006C2802D071280ED074282168081D2060BA
:102F70000868E96A0160F1E0E86A2268111D2160D1
:102F800011680880EAE0E86AC11723681A1D226008
:102F90001A68C2E90001E1E0E86A2268111D2160B7
:102FA00011680870DAE02068C01D20F0070020607A
:102FB000034603F108002060D3E90001CDE90001D8
:102FC000002904D56869411C69612D210DE0288F15
:102FD000810704D56869411C69612B2105E0C007A0
:102FE00004D56869411C696120218155686911A96E
:102FF0004018E860114600A800F0CFF9AEE09DF857
:103000003E006C280FD0712801D06A280BD12068AF
:10301000C01D20F007002060034603F10800206077
:10302000D3E9000104E02168081D20600868002140
:10303000CDE900019DF83E0068280CD0622806D03A
:10304000742801D07A280CD1DDE9000106E0DDE921
:103050000001C0B202E0DDE9000180B20021CDE94B
:10306000000195F83800000760D5DDE9000109B9D5
:1030700000285BD042F02000782857D16869411CB5
:103080006961302181556869411C696182554DE053
:103090009DF83E0062280CD0682810D06A281AD00B
:1030A0006C2824D0712816D0742820D07A280CD00F
:1030B0001DE02168081D206091F900001BE02168D7
:1030C000081D2060B1F9000015E02168081D20608E
:1030D0000868002110E02068C01D20F00700206073
:1030E000034603F108002060D3E9000104E02168F1
:1030F000081D20600868C117CDE90001DDE9000165
:1031000000290EDB288F810704D56869411C69619D
:103110002B210AE0C00709D56869411C696120219B
:1031200003E06869411C69612D218155686911A915
:103130004018E860114607E76869411C6961226828
:10314000111D21601168DEE66869411C6961252155
:1031500081551AB16869411C696182557F1C686B91
:103160006969401A296A401AA969401A696A401AAD
:10317000E969401AA96AA0EB010A95F838004007EE
:1031800011D420208DF84000BAF1010F0BDBD3469B
:10319000012210A900A800F03FFC00287FF403AE34
:1031A000BBF1010BF4D16A6911A900A800F034FC4D
:1031B00000287FF4F8AD30208DF84000D5F820B01D
:1031C000BBF1010F0ADB012210A900A800F024FCCA
:1031D00000287FF4E8ADBBF1010BF4D1AA69E968DE
:1031E00000A800F019FC00287FF4DDAD30208DF838
:1031F0004000D5F824B0BBF1010F0ADB012210A971
:1032000000A800F009FC00287FF4CDADBBF1010B54
:10321000F4D1EA69A869E968411800A800F0FCFB4C
:1032200000287FF4C0AD30208DF84000D5F828B0DC
:10323000BBF1010F0ADB012210A900A800F0ECFB92
:1032400000287FF4B0ADBBF1010BF4D195F8380044
:1032500040077FF590AD20208DF84000BAF1010FB6
:10326000FFF689AD012210A900A800F0D5FB0028C7
:103270007FF499ADBAF1010AF4D17CE52DE9FA4762
:1032800086B00546686900909DF818006F2808BF51
:10329000082705D040F02000782814BF0A271027FF
:1032A0003C24D5E90001064689469DF81820642A89
:1032B00001D0692A04D1002902DA764269EB490972
:1032C000B9F1000F0DD166B9686B50B9082F3FD125
:1032D00095F83C0000073BD5641E0098302121542E
:1032E00036E0A4F101084446F817CDE904703046F1
:1032F0004946DDE9042300F00FFFCDE90201B246A3
:10330000DDE90223DDE90401A0FB02695046801BD0
:103310003030C0B23A2803D39DF81810513908183C
:10332000009908F80100DDE90269B9F1000F00D148
:1033300026B12869009961188842D2D3082F07D195
:1033400095F83C00000703D50098205C3028C3D1D5
:10335000C4F13C00E861009961182961696B8842F9
:1033600007DA081A6862A88F4FF6EF710840A8873D
:1033700010E000290ED595F83C1001F01401102939
:1033800008D1A96BAA69891A6A6A891A0C1A012CD0
:10339000A8BF6C6208B0BDE8F0872DE9F24F8EB08F
:1033A000054604AFD5E90001CDE902019DF83800DA
:1033B00040F020008DF8000061280BD0686B0028D9
:1033C00048BF062005D405D19DF80000672801D12B
:1033D000012068636968C1F30A5040F2FF729042AD
:1033E00025D0012819DA284600F024FF012814DB33
:1033F000002400209DF80010612940D12A69511C49
:1034000029613021117029694A1C2A619DF83820F0
:10341000612A0CBF782258222DE040F2FE316A6802
:1034200061F31E526A60441A4FF0FF30E2E708036E
:1034300001D1286870B10320E8619DF83800613837
:10344000C0B21A2811D30FF210610322286900F0CC
:1034500013FF9EE10320E8619DF838006138C0B297
:103460001A2805D30FF2F851EFE70FF2E851ECE715
:103470000FF2E851E9E70A70A969891CA96110B93E
:103480000026B0467BE19DF80000612840F097805F
:10349000686B00284CBF2126461C36B2771CD5E944
:1034A00000ABDDE902010022002300F01DFF3ABF5E
:1034B0008BF00040CDE902A0CDE902ABA4F10408F5
:1034C0008DF810200DF11109012F33DBDDE9020128
:1034D0000022002300F020FF2CD21C2102A800F0C3
:1034E00033FFDDE9020100F0BBFF0446FF1F012F9F
:1034F00009DB00F0E1FF02460B46DDE9020100F0C6
:10350000F3FFCDE9020109F207000721012C0BDBD3
:10351000491E5EBF04F00F0200F8012D2411F5D5FD
:1035200002E0002200F8012D491EFAD500F2070939
:10353000012FCBDA0DF11100A9EB00010DF11107FC
:10354000B142B8BF0E4636B2002E31D43046884262
:1035500006DA04A941184978082928BF0F2100D2AA
:10356000002104AA821800E0761E401E12F80139DC
:103570008B42F9D00F2904D104A941184A78521C72
:103580004A70002803D504AF761C08F1040836B24F
:10359000701E0DD4C1190A783032D2B23A2A03D340
:1035A0009DF838303A3B9A1801F80129401EF2D5AF
:1035B000686B002840F1E380701E6863DFE0DDE99E
:1035C00002010022002300F08FFE05D2DDE9020196
:1035D00081F00041CDE9020124B247F297506043E7
:1035E0006D4990FBF1F80FFA88F8C8F1070400273D
:1035F000DFF8A891012C19DBDDE902ABE00707D564
:10360000504659463A464B4601F02EF882468B46C4
:103610006410384649463A464B4601F025F80746BD
:103620008946002CEAD1CDE902AB21E06442924602
:10363000DFF86CB114D0E00707D5504659463A463A
:103640004B4601F011F882468B46641038464946D5
:103650003A464B4601F008F807468946002CEAD165
:10366000DDE9020152465B4601F0D0F8CDE90201E6
:103670009DF8000066280CBF08F10A000620696B5F
:103680004618142EA8BF132630208DF810000DF117
:103690001104444F012E2FDBDDE9020100F0F6FE9C
:1036A00004F1080104220A23B0FBF3F403FB140025
:1036B000303001F8010DB4FBF3F003FB104330335D
:1036C00001F8013D521EEED101F10804083E012E21
:1036D000E0DBDDE9020100F0D9FE00F0F7FE024672
:1036E0000B46DDE9020100F0FFFE00223B4600F040
:1036F000BBFFCDE90201CFE70DF11100201A0DF15A
:1037000011079DF81110302906D1401EA8F10108BB
:1037100017F8011F3029F8D09DF80010662904BF62
:103720000FFA88F808F1010103D065290CBF0121C7
:1037300000216A6B8E1836B2B042B8BF064636B268
:10374000002E1CD43146814204DAC85D352828BFDA
:10375000392000D23020CA19521E00E0761E491EC0
:1037600012F801398342F9D0392802D1C85D401CD2
:10377000C855002903D57F1E761C08F101080FFAF1
:1037800088F0009033B23A469DF83810284600F091
:103790000BF80FB0BDE8F08FA086010000002440B8
:1037A0000000F03F84D797412DE9F04385B00546EE
:1037B000894617461E46BDF93040D5F83480012EA3
:1037C00002DA01260FF29C2749F0200066280AD071
:1037D000672840F086806FF003018C42C0F287803A
:1037E000444580F28480641C66280CD095F83C0027
:1037F000000702D44645B8BFB04624B2B8EB04086F
:1038000048BF4FF000082869E96924B2012C25DA85
:103810004A1C30230B54B8F1010F03DA95F83C1021
:10382000090702D52E211154521CEA6118EB040F2E
:10383000B8BFC8F1000424B26142A962A044B045F7
:10384000B8BF464636B22E6232463946EB69181882
:1038500000F012FDA8EB0600E862C6E00818A642D8
:1038600018DA3246394600F007FDE9697118E96156
:10387000A01BA862B8F1010F03DA95F83C0000071D
:1038800005D528692E220A54286A401C2862C5F8EA
:103890002C80AAE02246394600F0EEFCE8692018A8
:1038A000E861361BB8F1010F03DA95F83C100907FF
:1038B00004D5411CE96129692E22425436B2B04533
:1038C000B8BF464636B23246E119E8692B69C018DE
:1038D00000F0D2FCE8693018E861A8EB0600A862A5
:1038E00083E0B9F1610F16D14FF0700918E0464539
:1038F00004DA95F83C10090758BFB046B8F1010842
:1039000048BF4FF00008B9F1670F14BF4FF04509E9
:103910004FF0650904E0B9F1410F08BF4FF05009BD
:10392000E9694A1C286917F8013B0B54B8F1010FEB
:1039300003DA95F83C10090702D52E211154521CC8
:10394000EA61B8F1010F11DB761E36B2B045B8BF9F
:10395000464636B232463946EB69181800F08CFC00
:10396000E8693018E861A8EB0600A862E8692969EF
:10397000471807F8019B002C5CBF2B2007F8010BB0
:1039800003D52D2007F8010B644200260DF108082D
:1039900024B2012C0EDB0A22214600A801F059F8BE
:1039A000019808F8010B009C761C24B2012CF2DA75
:1039B000022E06DA49F02000652804BF302007F8FF
:1039C000010B1EB9302007F8010B09E0012E07DBBF
:1039D000761E02A8305C303007F8010B012EF7DAB2
:1039E000E86929694018381A286295F83C0000F007
:1039F000140010280DD1A869E9690818A96A0818E7
:103A0000296A0818E96A0818A96B8842BCBF081A15
:103A1000686205B0BDE8F08370B504460D461646F1
:103A20000020002E10D015F8011BE068A268904716
:103A3000E060002802D14FF0FF3070BD206B401CC9
:103A400020630020761EEED170BD0000686A6C74A1
:103A50007A4C00006E616E004E414E00696E660049
:103A6000494E460030000268531C036011707047D5
:103A700010B582B001214020FEF789FD0C20ADF881
:103A8000000010208DF8030003208DF80200814C07
:103A900000A9204600F0E4FF0C21204601F049F87F
:103AA00013BD10B57B4C206820F470402060206866
:103AB00040F4405020600821204601F03AF80421EB
:103AC000204601F036F80420FDF700FE08212046CC
:103AD00001F031F8042078E010B56E4C206820F435
:103AE00070402060206840F440502060042120464F
:103AF00001F021F80821204601F01DF80420FDF70F
:103B0000E5FD0421204601F014F80420FDF7DEFD58
:103B100008212046BDE8104001F00BB838B55D4CD7
:103B2000206820F470402060206840F4004020604D
:103B30000821204600F0FDFF0120FDF7C7FD04210C
:103B4000204600F0F6FF0120FDF7C0FDFB2508210F
:103B5000204600F0E6FF28B16D1EF8D1FFF7BCFF4C
:103B6000012032BD0421204600F0E5FF002032BDD7
:103B700010B5484C0421204600F0DDFF206820F4F9
:103B800070402060206840F44050206008212046AA
:103B900000F0D1FF11E010B53E4C0421204600F0AA
:103BA000CAFF206820F470402060206840F4405034
:103BB00020600821204600F0BCFF0220FDF786FDB2
:103BC0000421204600F0B5FF0220FDF77FFD04210F
:103BD0002046BDE8104000F0AEBF70B504462D4D44
:103BE000286820F470402860286840F4405028601D
:103BF0000421284600F09FFF0826200604D508214E
:103C0000284600F096FF03E00821284600F093FFC5
:103C100064000220FDF75AFD0421284600F089FFC8
:103C20000220FDF753FD0421284600F084FF022006
:103C3000FDF74CFD761EE0D170BDF8B504460025B9
:103C4000144E306820F470403060306840F400401A
:103C5000306008270421304600F06DFF0220FDF798
:103C600035FD0421304600F064FF6D000821304628
:103C700000F057FF00B16D1C0120FDF727FD7F1EEE
:103C8000E8D114B9FFF787FF01E0FFF771FFE8B251
:103C9000F2BD0000001801404FF0807C1CEB400F8B
:103CA00094BF1CEB410F05E040EA010C5FEA4C0CAD
:103CB00001D28142704718BF884270474FF0807C24
:103CC0001CEB400F94BF1CEB410F05E040EA010CD8
:103CD0005FEA4C0C01D28842704718BF814270479E
:103CE0007047704701F0F9BF01F0F8BF01F0F7BF6E
:103CF0004FF0807342F804391060101F6FF001021A
:103D000040F804294FF0123240F804294FF00332F2
:103D100040F804294FF0023240F804294FF00132F4
:103D200040F8042940F804194FF0113140F8041903
:103D30004FF0103140F804194FF0093140F80419E0
:103D40004FF0083140F804194FF0073140F80419DA
:103D50004FF0063140F804194FF0053140F80419CE
:103D60004FF004310160704701F0BABF01F0B9BFF4
:103D700001F0B8BF80B5FEF753FC11490A78521C18
:103D80000A70FEF751FCFEF78EFDBDE80140FEF71C
:103D900037BD10B50B4C01F0B3FF4FF47A71B0FB97
:103DA000F1F0401E60600848FF210170206840F07B
:103DB00005002060206840F00200206010BD000077
:103DC000EE3D002010E000E023ED00E0002201F0D5
:103DD0009DBF010010B5114C8C212046FEF70EFE50
:103DE000204604F21C010422002300F8043B40F8A2
:103DF000061B3F2300F8013B002300F8113B01F2B2
:103E00001C01521EF0D1037043603F218172C372C6
:103E10000148046010BD0000548F00204C8A00202F
:103E200010B50B4C60212046FEF7E8FD04F11800A8
:103E3000206004F23000A06104F2480020630020FA
:103E4000A0640248046010BD00000000588F0020EC
:103E5000608D00202DE9F74F84B09846109CDDF866
:103E60004490129E139F149DFEF7DAFBDFF8CC11ED
:103E7000097819B1FEF7D8FB3C2035E0C246DFF8DF
:103E8000A8B15BF82A1061BB01214BF82A10FEF79C
:103E9000CBFBAAB23146484600F0D2F8ABB2069A44
:103EA00005990498FFF724FF0146ADB202950197EA
:103EB0000096A3B24A464046FEF73EFE040007D1F4
:103EC000DFF874010078012809D1FEF7A0FD06E0B3
:103ED000FEF7A6FB00214BF82A10FEF7A5FB2046B3
:103EE00002E0FEF7A1FB282007B0BDE8F08FF8B58F
:103EF00006460D4614465148007808B1122026E0C7
:103F0000FEF78EFB0746FF2E03D14848006890F865
:103F10003260454850F8266026B93846FEF784FBE3
:103F2000432014E0012EF8D02846FEF7AAFD102801
:103F300004D33846FEF778FB412008E0294606F115
:103F40004C00FEF790FD3846FEF76EFB0020207017
:103F5000F1BDF8B505460C46002020606060FEF714
:103F60005FFBFF2D03D13149096891F832502E498A
:103F700051F8251001B953E00129FCD00A7CD20781
:103F800003D4FEF751FB4520F2BD0025CE688F68B3
:103F9000FEF74AFB386820B96D1C57F8040F00285B
:103FA000FAD0A8002060701B800060600020F2BD85
:103FB000F8B50546FEF734FB1C49096891F8321044
:103FC000FF2D02D10D46012402E08D42FBD00024DA
:103FD000154951F8251019B9FEF726FB4820F2BD06
:103FE000012900D11CE001F230021379104D5E5D11
:103FF0005779BE435E5505D10E4B1D78927925EA5F
:1040000002021A7091F8302042F0080281F8302044
:10401000FEF70AFB012C08BFFEF7F9FC0020F2BDF9
:10402000FEF702FB4320F2BDD88A0020103E00209C
:10403000F83D0020F23D0020F33D0020EE3D002041
:1040400002F00302032A06D129B1491E002240F8DA
:10405000042B0029F9D17047704764000278C9B277
:104060008A421AB11CBF10F8012FF9E718BF0020CF
:1040700070471000C9B2830706D0521E22D310F831
:10408000013B9942F7D11FE0083A13D302F1040231
:1040900041EA012141EA014150F8043B121F21BFCE
:1040A0004B40A3F1013C2CEA030C1CF0803FF3D001
:1040B000C9B2001F083210F8013B521E28BF91EA16
:1040C000030FF8D818BF0120401E704700F101030C
:1040D000810704D010F8011B89B18107FAD1026869
:1040E000B2F10131914311F0803F04BF50F8042F29
:1040F000F6E710F8011B11B110F8011BFBE7C01A1D
:104100007047010013F0004C03D55B42524263F14B
:1041100000039CEA210C15D11B4229D109424CD144
:104120002AB18446B0FBF2F002FB10C2704701F0E6
:104130001DBEFCD30022002370470B0002000021AB
:104140000020704710B5644603D34942404261F1F4
:104150000001FFF7E1FF640004D34942404261F1EE
:104160000001244203D55B42524263F1000310BDBB
:10417000904271EB030CE0D370B5B1FA81F4B3FA5D
:1041800083F52C1BA340C4F1200532FA05F6334316
:10419000A2405FF00046E64002E05B085FEA3202C0
:1041A000841A71EB030524BF204629467641F4D3D7
:1041B00002000B003000002170BD012AB9D970B592
:1041C000140C20D0B1FA81F4B2FA82F5C4F12004C3
:1041D0006419B4F12006D6D3B2405FF00044F44035
:1041E000002502E052085FEA3303C61A71EB020EA3
:1041F00024BF3046714664416D41F3D302000B0089
:104200002000290070BD0C46B1FBF2F102FB114504
:104210002D0445EA1045B5FBF2F402FB145580B2BB
:1042200040EA0545B5FBF2F002FB105240EA0440BB
:1042300070BD200070B4416801F0004201210D4BB7
:1042400044681C40446001D104686CB1046845684E
:10425000E60F46EA4505456064000460491EEC022D
:10426000F4D544682340436043681A4342600846DB
:1042700070BC7047FFFF0F004AB38B0707D0521E78
:1042800011F8013B00F8013B21D08B07F7D18307E0
:104290001ED1103A07D330B4B1E83810103AA0E874
:1042A0003810F9D230BC530724BFB1E80810A0E899
:1042B000081044BF51F8043B40F8043BD20724BF28
:1042C00031F8022B20F8022B44BF0B7803707047A3
:1042D000083A07D3B1E80810083A40F8043B40F820
:1042E00004CBF7D25307E4E74FF4001C1CEB410F5B
:1042F00094BF1CEB430F09E041EA030C50EA4C0C5D
:1043000052EA0C0C03D2994208BF9042704714BF86
:104310008B4282427047800C4FF4001C1CEB410F13
:1043200094BF1CEB430F09E041EA030C50EA4C0C2C
:1043300052EA0C0C03D28B4208BF8242704714BF72
:10434000994290427047010070B504460D4660687E
:10435000C0F30A5040F2FF71884209D1606800033F
:1043600002D12068002801D0022070BD012070BD5C
:1043700030B92046FFF75EFF012801DB002070BD49
:10438000012D0EDB40F2FF71091A8D4209D36068DE
:10439000002847BF00202F4900202F49C4E9000111
:1043A000E4E74142A942616806DA2C4A114040190B
:1043B00041EA0050606049E001F000416268120388
:1043C000120B42F480126260401E451905F135005F
:1043D000352803D361600020206070BD002215F1F4
:1043E0001F0F05DA203522686068206000206060B9
:1043F000684213D0521E9241D243C0F12003256877
:104400009D4055EAD2722568C540666806FA03F3F6
:104410002B432360636823FA00F060606068084300
:104420006060B2F1004F03D80AD12078C00707D5E9
:104430002068401C2060206810B96068401CB9E703
:104440006068884202D12068002897D04FF0FF3082
:1044500070BD00BF0000F0FF0000F07FFFFF0F8085
:10446000F446400D40EAC120490006D200F013F89E
:10447000004248BF6FF00040604700F00CF84FF07A
:10448000004188428CBF084640426047400D40EAE8
:10449000C12049000CD240F00040490DA1F58061D7
:1044A000491C05D4D1F11F0154BFC840C017704743
:1044B0004FF0000070471C00010040F10880F446F6
:1044C000404200F004F851F000416047010009D07B
:1044D000B0FA80F18840C91CC1F58461090501EB7F
:1044E000D02140057047140070B44FF0004591EAA8
:1044F000030F44BF6B4001F044BC841A71EB030608
:1045000004D26E40001BB141121973414FF4001CDC
:104510001CEB410F34BF7CEB430684E00C0DA4EB95
:104520001356362E7DDC012E43DC45EAC32343EAD5
:10453000525312BFD20292025B08240545EAC12100
:1045400041EA5051D2EBC020994125D407D1B0FAAD
:1045500080F610FA06F164D00020203608E0B1FAA7
:1045600081F6B140C6F1200220FA02F21143B040B8
:104570004FEAF474B4EB465434F001064FEA740485
:104580000AD8D6F50016760D04F00044F04061FA22
:1045900006F25040F1404840C00A40EA415021F044
:1045A000004128BF5FEA500550F1000044EBD121E3
:1045B00037E045EAC323DB0A45EAC121C90AB6F15F
:1045C00020050EDD42EA0242120CC5F1200603FA74
:1045D00006F6EB4042EA06056D42984161F10001A2
:1045E0000DE062FA06F5F240554063FA06FC82EAF5
:1045F0000C02F3405A406D42904161EB030111F40B
:10460000801F05D1641E620502D06D004041494102
:1046100021F48011430875F1004350F1000041EB93
:10462000045170BC70471CEB410F15D223F00043BE
:1046300052EA43060BD04FEA4C0CBCEB410F04D8B6
:104640000C0D661E342EB7DDEBE7801A994150EA57
:10465000410608BF0021E4E708BF1CEB430F28BF59
:104660006FF00001DDE70200B0B581EA030C0CF049
:10467000004C40F2FF7515EA11541DBF15EA13579F
:10468000AC42AF4239E0E41923EA455343F48013C6
:10469000C90241F0004141EA505EC7021100A7FB88
:1046A000020200284FF00000EEFB01204FF0000155
:1046B000E3FB072118BF42F00102401800214941E5
:1046C000E3FB0E01A4F580640F0302D252004041C7
:1046D000494154F101046CDD470872F1004250F188
:1046E000000051EB0451A1F580115CBF41EA0C01BF
:1046F000B0BD4CEA05510020B0BD05EA1357AC42ED
:1047000014BFAF4241E050EA410E1CBF52EA430ED3
:1047100002E061460020B0BD24423C441BD15FEA68
:10472000070EF6D0090302BF01460020AEF1140EB9
:10473000B1FA81F7AEEB070401FA07FE0C37C7F1B7
:10474000200100FA07F7C8404EEA000E23EA45535D
:1047500043F48013A2E733F00043B3FA83F704BFB6
:10476000B2FA82FE77440B3FE41BB7F1200E2FBF55
:1047700002FA0EF3BB40C7F1200E22FA0EFE38BF3C
:1047800043EA0E03BA40641C82E750EA410E14BFAC
:1047900052EA430E6FF000014FF4001717EB430F7E
:1047A0008ABF194617EB410FB5E74CEA05510020C7
:1047B000B0BDD4F10104B4F120070FDAC4F1200731
:1047C000520828BF42F0010210FA07F501FA07F774
:1047D000E1BF2A43E0403843E1400FE0352C98DC4C
:1047E000C7F1200452EA400220FA07F218BF42F053
:1047F000010231FA07F0A1400A43002172F10042A0
:1048000050F1000051EB0C01B0BD0500F0B540F2D5
:10481000FF7581EA030C0CF0004C15EA11541DBF22
:1048200015EA1357AC42AF42E5E0BC41C1F31301B6
:10483000C3F31303801A994143F4801304D2641E16
:104840004000494180185941C90241EA5051B1FB29
:10485000F3F603FB1611A2FB0675D7EBC020A941A6
:1048600002D2761E80185941C90241EA5051B1FB6B
:10487000F3FE03FB1E11A2FB0E75D7EBC020A9416E
:1048800003D2AEF1010E80185941890241EA9051DC
:10489000760546EA8E2EB1FBF3F603FB1611A2FB5A
:1048A0000675D7EB8020A94102D2761E80185941A7
:1048B000C90241EA50514EEA060EB1FBF3F603FB82
:1048C0001611A2FB0675D7EBC020A94102D2761EB5
:1048D00080185941C90241EA5051B1FBF3F703FB7B
:1048E0001711A2FB0735D3EBC020A94167F10007E0
:1048F0000CBF004247F0010766F3D5274FEA1E318F
:10490000B80814F5806412DDBD0775F1004250EB64
:104910000E5051EB045111F5801F5CBF41EA0C01B0
:10492000F0BD4CF07F6141F0E0410020F0BDBD07DB
:104930006D0840EA0E5041F48011D4F10104B4F145
:1049400020060ADAC4F120060200E04001FA06F36C
:10495000E1401843B24015430EE0342C13DCC6F19D
:10496000200445EA40056D0820FA06F2154321FAB5
:1049700006F0A1400D43002175F1004250F1000006
:1049800051EB0C01F0BD00205FEA0C01F0BDCFB986
:1049900092185B41B3FA83F704BFB2FA82F6BF19EB
:1049A0000B3FB7F120062FBF02FA06F3BB40C7F159
:1049B000200622FA06F638BF3343BA401CB1E41988
:1049C000641E33E77F4231F00041B1FA81F404BF45
:1049D000B0FA80F6A4190B3CB4F120062FBF00FA00
:1049E00006F1A140C4F1200620FA06F638BF314393
:1049F000A0403C1B1AE7AC421ABF05EA1357AF426E
:104A000012E050EA41061CBF52EA4306BFE750EAF3
:104A10004107304661461CBF41EA0551F0BD52EAEC
:104A2000430C08BFC143F0BD00204FF4001616EB45
:104A3000410F98BF16EB430F08BF16EB410F24BF81
:104A4000C14305E016EB430F0CBF61464CEA05512C
:104A5000F0BD91FBF2F303FB1211C0E90031704786
:104A60002DE9F041CB7803F00F02DB0644BF8B78D1
:104A70001A430B88DCB22CB3D0F800C00024012507
:104A80000F2605FA04F7BE460EEA0308F04514D1D6
:104A90004FEA840E06FA0EF82CEA080C02FA0EFE13
:104AA0004EEA0C0C91F803E0BEF1280F08BF4761F5
:104AB00003D0BEF1480F08BF0761641C082CE0D387
:104AC000C0F800C04FF48074A34228D3D0F804C0CB
:104AD000002401250F2604F1080705FA07F7BE4652
:104AE0000EEA0308F04515D14FEA840E06FA0EF8D7
:104AF0002CEA080C02FA0EFE4EEA0C0C91F803E0C8
:104B0000BEF1280F08BF476191F803E0BEF1480FDE
:104B100008BF0761641C082CDDD3C0F804C0BDE8E1
:104B2000F0818068FFE70140481E8041C043C00F0C
:104B300070470161704741617047002A14BF0161ED
:104B40004161704700B587B001F0CEF8FDF7B8FDC0
:104B50000E4803210491002103914FF480710291CA
:104B6000019003210091032300F2FC320021DFF8C1
:104B7000140EFFF76FF905AA0FF62C610320FFF75B
:104B8000B6F9FDF765FE07B000BD0000E07E00202D
:104B90002DE9F04F8DB001F05FF9FFF7FAF8FDF75E
:104BA00069FEDFF8E44D03200490002003904FF4E9
:104BB0000070029004F11800019008200090082372
:104BC00004F614020021DFF8C40DFFF743F905AA2B
:104BD0000FF6E0510820FFF78AF905AA0FF6E45115
:104BE0000920FFF784F903200490002003904FF47C
:104BF0008070029004F6180001900920009003468E
:104C000004F614420021DFF8880DFFF723F901F0C4
:104C100061FAFCF7C3FD0028FBD1FCF7E3FDDFF8E8
:104C2000745D00202860DFF8709D0BE04FF4805128
:104C3000DFF8680DFFF77FFF3223002200210846CE
:104C4000FCF7F7FC41F2A86000EB090738790A90FD
:104C500041F2A86010F809007989ADF82610B989E9
:104C6000ADF82410F989ADF82210398AADF820107A
:104C7000798AADF81E10B98AADF81C10F98AADF822
:104C80001A10398BADF81810798DADF80A10B98D5E
:104C9000ADF80810798BADF81210B98BADF8101083
:104CA000F98BADF80E10398CADF80C10398F012945
:104CB00040F012834FF00008C2460A990129C0F261
:104CC000DF8009F5A0510591CDF80490FDF76EFB4A
:104CD000064608983146FDF777FB0C900998314657
:104CE000FDF772FB0B900598008828600AF1010A15
:104CF0006021504601F05BFB00902A680B99FEF79B
:104D0000CBFF04D8802A0ED042F020020BE00C9892
:104D10000099FEF7C1FF04D8802A04D042F00402B3
:104D200001E022F024022A600198BDF802100180FF
:104D30000198BDF8001041800098414601F0A0FDA7
:104D40000646B0463223002200210846FCF771FCDB
:104D50006121504601F047FC00902A680799FEF750
:104D60009BFF04D8802A0ED042F010020BE0069878
:104D70000099FEF791FF04D8802A04D042F0020285
:104D800001E022F012020198BDF80210A0F8001410
:104D90000198BDF80010A0F80214802AA8BF802254
:104DA0002A600598028009F5B050008805990988A5
:104DB000084309F5B051088032230022002108463B
:104DC000FCF737FC41F2E86000EB0901C88F0028CE
:104DD00041D0C88DE081088EA08141F2287000EB9F
:104DE00009025088608290882082D088E0821089F1
:104DF000A082E36820691946FEF760FF2BD31846AE
:104E00006169FEF75BFF26D20021FEF745FF22D243
:104E1000C4F80880508AE081908AA0810AA80078AE
:104E2000FDF7C4FA0146304601F06CFD0146E0682A
:104E3000FEF744FF07D2DFF8680BFDF7C5FA01F073
:104E4000DFFD014609E0DFF85C1BFEF725FF02D815
:104E5000DFF84C1BF1E74FF4FA61504601F0FEFC1D
:104E60003223002200210846FCF7E3FB0198001DD5
:104E700001900598801C05900A988245FFF633AF93
:104E8000C4F8088041F2E86000EB090160894885B8
:104E9000208988852078002800F010814FF0000AD2
:104EA0000A980128C0F2088109F5A05005904FF436
:104EB000967609F6000BDFF8E80A029901F0B2FDD8
:104EC0000B906078002800F0DA800AF10108422196
:104ED000404601F045F90023052200210846FCF771
:104EE000A8FB2221404601F03BF94FF4FA7300225F
:104EF00011460846FCF79DFB01F03CF90190DFF8F4
:104F0000501DFEF7DBFE07D2BDF80600ABF800002F
:104F1000BDF80400ABF8020001980021FEF7CEFEB8
:104F200005D8286880281CBF40F0010028605FFA7F
:104F30008AF0FDF716F9002840F0988001980021CA
:104F4000FEF7AAFE80F09280DFF8041DFEF7B6FEA1
:104F500080F08C800221B0B2FCF710FC608101234C
:104F6000002200210846FCF764FB0221B01C80B23D
:104F7000FCF704FC20810123002211460846FCF7BF
:104F800058FBD4F808806089ABF800082089ABF89A
:104F900002080198414601F0B5FC01460498FEF76D
:104FA0008DFE05D22868802810D040F008000CE063
:104FB00008460399FEF782FE286804D2802805D0AF
:104FC00040F0010001E020F009002860788B60814A
:104FD000B88B20810198414601F024FD0B99FDF723
:104FE000F3F90090A068DFF86C1C01F049FC414621
:104FF000FDF7EAF90146009801F084FC0146DFF86C
:10500000A00901F00FFD0090DFF84C1CFEF744FEF4
:1050100007D8DFF8481CFEF751FE38BFDFF88009DB
:105020000CD30021FEF74AFE38BF009107D3DFF80A
:105030002C1CFEF731FE02D8DFF8240C00900298F9
:105040000099FEF729FE286804D8802805D040F092
:10505000400001E020F040002860BDF80200ABF8FD
:105060000004BDF80000ABF8020405E028688028C1
:1050700008D040F0400028602868802802DA2868BC
:10508000802801DB8020286005982968018009F5C7
:10509000B050008805A90B689A1C0A60198808435B
:1050A00009F5B05108800AF1010A0BF1040B361D15
:1050B0000A988245FFF605AF00202070607900282D
:1050C00000F00A8100206071E078002800F0EE8096
:1050D00042212079401C01F043F8002305220021E1
:1050E0000846FCF7A6FA22212079401C01F038F886
:1050F0004FF4FA73002211460846FCF79AFA01F0C1
:1051000039F80190DFF8481BFEF7D8FD0AD2207964
:1051100009EB8000BDF80610A0F80018BDF80410D7
:10512000A0F8021801980021FEF7C8FD05D82868EC
:1051300080281CBF40F0010028602079FDF711F89D
:10514000002840F0AA8001980021FEF7A5FD80F01C
:10515000A480DFF8FC1AFEF7B1FD80F09E800221EA
:105160002079800000F22C1080B2FCF707FB6081F0
:105170000123002200210846FCF75BFA0221207976
:10518000800000F5977080B2FCF7F8FA20810123C7
:10519000002211460846FCF74CFAD4F80880207922
:1051A00009EB800606F580506189018041F202001A
:1051B000218981530198414601F0A4FB01460498DE
:1051C000FEF77CFD05D22868802810D040F008004A
:1051D0000CE008460399FEF771FD286804D2802888
:1051E00005D040F0010001E020F009002860788B34
:1051F0006081B88B20810198414601F013FC824602
:10520000DFF89C07029901F00DFC5146FDF7DCF830
:105210008246A068DFF83C1A01F032FB4146FDF7F8
:10522000D3F80146504601F06DFB0146DFF87007E8
:1052300001F0F8FB0090DFF8201AFEF72DFD07D8EB
:10524000DFF8181AFEF73AFD38BFDFF854070CD321
:105250000021FEF733FD38BF009107D3DFF8FC19BA
:10526000FEF71AFD02D8DFF8F809009002980099BD
:10527000FEF712FD286804D8802805D040F04000D1
:1052800001E020F040002860BDF80200A6F8000C04
:10529000BDF80000A6F8020C05E02868802808D0B8
:1052A00040F0400028602868802802DA28688028BA
:1052B00001DB80202860207909EB400000F5A05137
:1052C0002A680A8009F5B051098800F5A0500088C5
:1052D000084309F5B0510880B8790A90B878798FF9
:1052E000ADF82610B98FADF82410F98FADF8221063
:1052F00041F2E86131F80910ADF8201041F2E8619F
:1053000001EB09067188ADF81E10B188ADF81C10CC
:10531000F188ADF81A103189ADF81810718BADF81D
:105320000A10B18BADF808107189ADF81210B1896F
:10533000ADF81010F189ADF80E10318AADF80C10EF
:105340004FF00008318D012940F00B83C2460A99C5
:105350000129C0F2DF8009F5A851059109F2002169
:105360000191FDF723F8834608985946FDF72CF87C
:105370000C9009985946FDF727F80B90059800887E
:1053800028600AF1010A6021504601F0E8FC009013
:105390002A680B99FEF780FC04D8802A0ED042F0D0
:1053A00020020BE00C980099FEF776FC04D8802AC6
:1053B00004D042F0040201E022F024022A600198A5
:1053C000BDF8021001800198BDF8001041800098DE
:1053D000414601F055FA8346D84632230022002187
:1053E0000846FCF726F96121504601F0D6FD0090F1
:1053F0002A680799FEF750FC04D8802A0ED042F0A4
:1054000010020BE006980099FEF746FC04D8802AAB
:1054100004D042F0020201E022F012020198BDF82D
:105420000210A0F800140198BDF80010A0F80214B2
:10543000802AA8BF80222A600598028009F5B05012
:10544000008805990988084309F5B051088032237E
:10545000002200210846FCF7ECF841F2287030F8F1
:105460000900002841D0F08EE081308FA08141F208
:10547000287000EB09025089608290892082D089CF
:10548000E082108AA082E36820691946FEF716FCC4
:105490002BD318466169FEF711FC26D20021FEF7D6
:1054A000FBFB22D2C4F80880D08AE081108BA08157
:1054B000F888D0B1FCF77AFF0146584601F022FA8D
:1054C0000146E068FEF7FAFB07D2DFF8D404FCF7E8
:1054D0007BFF01F095FA014609E0DFF8C814FEF7FA
:1054E000DBFB02D8DFF8B814F1E74FF4FA6150465D
:1054F00001F092FE3223002200210846FCF799F8C1
:105500000198001D01900598801C05900A9882451D
:10551000FFF634AFC4F80880608970862089B086B1
:10552000A078002800F00E814FF0000A0A980128A8
:10553000C0F2068109F5A85005904FF44B7709F6A3
:10554000002BDFF85C04029901F06CFA0B90E07814
:10555000002800F0D8800AF101084221404601F0FD
:10556000D3FA0023052200210846FCF762F8222125
:10557000404601F0C9FA4FF4FA730022114608467A
:10558000FCF757F801F0CAFA0190DFF8C416FEF7ED
:1055900095FB07D2BDF80600ABF80000BDF804008B
:1055A000ABF8020001980021FEF788FB05D82868B7
:1055B00080281CBF40F0010028605FFA8AF0FCF7E9
:1055C00039FE002840F0968001980021FEF764FB28
:1055D00080F09080DFF87816FEF770FB80F08A800C
:1055E0000221B8B2FCF7CAF8608101230022002131
:1055F0000846FCF71EF80221B81C80B2FCF7BEF882
:1056000020810123002211460846FCF712F8D4F845
:1056100008806089ABF800082089ABF8020801987F
:10562000414601F06FF901460498FEF747FB05D2A9
:105630002868802810D040F008000CE00846039944
:10564000FEF73CFB286804D2802805D040F001001A
:1056500001E020F00900286070896081B089208114
:105660000198414601F0DEF90B99FCF7ADFE009080
:10567000A068DFF8E01501F003F94146FCF7A4FE4D
:105680000146009801F03EF90146C54801F0CAF90B
:105690000090DFF8C415FEF7FFFA06D8DFF8BC1556
:1056A000FEF70CFB38BFBE480CD30021FEF706FB0B
:1056B00038BF009107D3DFF8A415FEF7EDFA02D842
:1056C000DFF89C05009002980099FEF7E5FA28683B
:1056D00004D8802805D040F0400001E020F04000D0
:1056E0002860BDF80200ABF80004BDF80000ABF87C
:1056F000020405E02868802808D040F040002860B7
:105700002868802802DA2868802801DB8020286049
:1057100005982968018009F5B050008805A90B6833
:105720009A1C0A601988084309F5B05108800AF1EB
:10573000010A0BF1040B3F1D0A988245FFF607AFE3
:105740000020A070A079002800F005810020A07141
:10575000E078002800F0E98042212079401C01F027
:10576000D3F90023052200210846FBF762FF22211E
:105770002079401C01F0C8F94FF4FA730022114659
:105780000846FBF756FF01F0C9F90190DFF8C01495
:10579000FEF794FA0AD2207909EB8000BDF80610D2
:1057A000A0F8001ABDF80410A0F8021A0198002110
:1057B000FEF784FA05D8286880281CBF40F0010055
:1057C00028602079FCF736FD002840F0A58001987C
:1057D0000021FEF761FA80F09F80DFF87414FEF775
:1057E0006DFA80F0998002212079800000F22C303F
:1057F00080B2FBF7C3FF608101230022002108462D
:10580000FBF717FF02212079800000F22E3080B2D2
:10581000FBF7B4FF20810123002211460846FBF765
:1058200008FFD4F80880207909EB800707F590502D
:105830006189018041F202202189C15301984146CA
:1058400001F060F801460498FEF738FA05D228689E
:10585000802810D040F008000CE008460399FEF7BD
:105860002DFA286804D2802805D040F0010001E01C
:1058700020F00900286070896081B089208101983A
:10588000414601F0CFF806464548029901F0CAF8B2
:105890003146FCF799FD0646A068DFF8B81300F022
:1058A000EFFF4146FCF790FD0146304601F02AF833
:1058B00001463B4801F0B6F80090DFF89C13FEF774
:1058C000EBF906D8DFF89413FEF7F8F938BF34483F
:1058D0000AD30021FEF7F2F938BF009105D3DF4962
:1058E000FEF7DAF901D8DE48009002980099FEF739
:1058F000D3F9286804D8802805D040F0400001E0A2
:1059000020F040002860BDF80200A7F8000EBDF8A6
:105910000000A7F8020E05E02868802808D040F0B3
:10592000400028602868802802DA2868802801DB87
:1059300080202860207909EB400000F5A8512A68F2
:105940000A8009F5B051098800F5A850008808437D
:1059500009F5B05108800A23002200210846FBF710
:1059600068FE09F5B050008800283FF45FA909F5EA
:10597000B050002101804FF480510848FFF7D9F85A
:10598000FFF75AB9914B0008C46E0020D5590008A2
:10599000E35B0008AC8E00208C560020000C014018
:1059A0000000C84201005041537461727420546178
:1059B000736B00004D4F444255532053746174750E
:1059C00073000000414C41524D2053746174757353
:1059D000000000002DE9F04F8DB000208DF802008E
:1059E000ADF800009F4C44F22830A0800020E080F9
:1059F000DFF874B201208BF8000001F04BFC9B4FE4
:105A00009B4D63E00021F970E862E88D3081A88D3C
:105A1000708102A801F073FC284602A92C22FEF72F
:105A200038FCB5F830A06E8E28689DF802108142CF
:105A300043D08DF80200387818BB68689DF80110D3
:105A400081421ED08DF801002088E8856088A885F5
:105A50000AF1010AE86A01F05FFC804689461FFAF4
:105A60008AFA5046FEF732FD0022824BFEF7CEFE48
:105A700042464B46FEF750FC03D8012038704FF0E9
:105A8000000AB878C8B968689DF80010814214D03F
:105A90008DF80000208EE885608EA885761CB6B251
:105AA0003046FCF783FC744900F02CFFE96AFEF7EE
:105AB000F3F802D80120B87000266E86A5F830A051
:105AC0000A23002200210846FBF7B3FD9BF80000E3
:105AD00001280CBF002201224FF400516748FFF754
